{
  "contracts/Donut.sol": {
    "Donut": {
      "abi": [
        {
          "inputs": [],
          "stateMutability": "nonpayable",
          "type": "constructor"
        },
        {
          "anonymous": false,
          "inputs": [
            {
              "components": [
                {
                  "internalType": "address",
                  "name": "user",
                  "type": "address"
                },
                {
                  "internalType": "string",
                  "name": "username",
                  "type": "string"
                }
              ],
              "indexed": false,
              "internalType": "struct Donut.ActivateUserResponse",
              "name": "response",
              "type": "tuple"
            }
          ],
          "name": "ActivateUser",
          "type": "event"
        },
        {
          "anonymous": false,
          "inputs": [
            {
              "indexed": false,
              "internalType": "uint256",
              "name": "newFee",
              "type": "uint256"
            }
          ],
          "name": "ChangeDonationFee",
          "type": "event"
        },
        {
          "anonymous": false,
          "inputs": [
            {
              "components": [
                {
                  "internalType": "address",
                  "name": "from",
                  "type": "address"
                },
                {
                  "internalType": "address",
                  "name": "to",
                  "type": "address"
                },
                {
                  "internalType": "uint256",
                  "name": "amount",
                  "type": "uint256"
                },
                {
                  "internalType": "string",
                  "name": "message",
                  "type": "string"
                }
              ],
              "indexed": false,
              "internalType": "struct Donut.DonateResponse",
              "name": "response",
              "type": "tuple"
            }
          ],
          "name": "Donate",
          "type": "event"
        },
        {
          "anonymous": false,
          "inputs": [
            {
              "components": [
                {
                  "internalType": "address",
                  "name": "user",
                  "type": "address"
                },
                {
                  "internalType": "uint256",
                  "name": "amount",
                  "type": "uint256"
                }
              ],
              "indexed": false,
              "internalType": "struct Donut.WithdrawResponse",
              "name": "response",
              "type": "tuple"
            }
          ],
          "name": "Withdraw",
          "type": "event"
        },
        {
          "inputs": [
            {
              "internalType": "address",
              "name": "toUser",
              "type": "address"
            },
            {
              "internalType": "string",
              "name": "message",
              "type": "string"
            }
          ],
          "name": "donate",
          "outputs": [],
          "stateMutability": "payable",
          "type": "function"
        },
        {
          "inputs": [],
          "name": "donationFee",
          "outputs": [
            {
              "internalType": "uint256",
              "name": "",
              "type": "uint256"
            }
          ],
          "stateMutability": "view",
          "type": "function"
        },
        {
          "inputs": [],
          "name": "getBalance",
          "outputs": [
            {
              "internalType": "uint256",
              "name": "",
              "type": "uint256"
            }
          ],
          "stateMutability": "view",
          "type": "function"
        },
        {
          "inputs": [],
          "name": "iOwner",
          "outputs": [
            {
              "internalType": "address",
              "name": "",
              "type": "address"
            }
          ],
          "stateMutability": "view",
          "type": "function"
        },
        {
          "inputs": [],
          "name": "isSelfActivated",
          "outputs": [
            {
              "internalType": "bool",
              "name": "",
              "type": "bool"
            }
          ],
          "stateMutability": "view",
          "type": "function"
        },
        {
          "inputs": [
            {
              "internalType": "string",
              "name": "username",
              "type": "string"
            }
          ],
          "name": "selfActivate",
          "outputs": [],
          "stateMutability": "nonpayable",
          "type": "function"
        },
        {
          "inputs": [
            {
              "internalType": "uint256",
              "name": "_fee",
              "type": "uint256"
            }
          ],
          "name": "setDonationFee",
          "outputs": [],
          "stateMutability": "nonpayable",
          "type": "function"
        },
        {
          "inputs": [
            {
              "internalType": "address",
              "name": "",
              "type": "address"
            }
          ],
          "name": "userBalances",
          "outputs": [
            {
              "internalType": "uint256",
              "name": "balance",
              "type": "uint256"
            },
            {
              "internalType": "string",
              "name": "username",
              "type": "string"
            },
            {
              "internalType": "bool",
              "name": "isActivated",
              "type": "bool"
            }
          ],
          "stateMutability": "view",
          "type": "function"
        },
        {
          "inputs": [],
          "name": "withdraw",
          "outputs": [],
          "stateMutability": "nonpayable",
          "type": "function"
        }
      ],
      "evm": {
        "bytecode": {
          "linkReferences": {},
          "object": "60806040523480156200001157600080fd5b50336000806101000a81548173ffffffffffffffffffffffffffffffffffffffff021916908373ffffffffffffffffffffffffffffffffffffffff16021790555060056001819055506040518060400160405280600581526020017f6f776e6572000000000000000000000000000000000000000000000000000000815250600360003373ffffffffffffffffffffffffffffffffffffffff1673ffffffffffffffffffffffffffffffffffffffff1681526020019081526020016000206001019081620000e0919062000361565b5062000448565b600081519050919050565b7f4e487b7100000000000000000000000000000000000000000000000000000000600052604160045260246000fd5b7f4e487b7100000000000000000000000000000000000000000000000000000000600052602260045260246000fd5b600060028204905060018216806200016957607f821691505b6020821081036200017f576200017e62000121565b5b50919050565b60008190508160005260206000209050919050565b60006020601f8301049050919050565b600082821b905092915050565b600060088302620001e97fffffffffffffffffffffffffffffffffffffffffffffffffffffffffffffffff82620001aa565b620001f58683620001aa565b95508019841693508086168417925050509392505050565b6000819050919050565b6000819050919050565b6000620002426200023c62000236846200020d565b62000217565b6200020d565b9050919050565b6000819050919050565b6200025e8362000221565b620002766200026d8262000249565b848454620001b7565b825550505050565b600090565b6200028d6200027e565b6200029a81848462000253565b505050565b5b81811015620002c257620002b660008262000283565b600181019050620002a0565b5050565b601f8211156200031157620002db8162000185565b620002e6846200019a565b81016020851015620002f6578190505b6200030e62000305856200019a565b8301826200029f565b50505b505050565b600082821c905092915050565b6000620003366000198460080262000316565b1980831691505092915050565b600062000351838362000323565b9150826002028217905092915050565b6200036c82620000e7565b67ffffffffffffffff811115620003885762000387620000f2565b5b62000394825462000150565b620003a1828285620002c6565b600060209050601f831160018114620003d95760008415620003c4578287015190505b620003d0858262000343565b86555062000440565b601f198416620003e98662000185565b60005b828110156200041357848901518255600182019150602085019450602081019050620003ec565b868310156200043357848901516200042f601f89168262000323565b8355505b6001600288020188555050505b505050505050565b61169680620004586000396000f3fe6080604052600436106100865760003560e01c80633d082266116100595780633d08226614610135578063429c14d71461016057806377c9dd4b1461017c57806390872630146101a7578063a9514f31146101d257610086565b806312065fe01461008b5780631cf85b9b146100b657806326224c64146100df5780633ccfd60b1461011e575b600080fd5b34801561009757600080fd5b506100a06101fb565b6040516100ad91906109c4565b60405180910390f35b3480156100c257600080fd5b506100dd60048036038101906100d89190610a1f565b610245565b005b3480156100eb57600080fd5b5061010660048036038101906101019190610aaa565b610358565b60405161011593929190610b82565b60405180910390f35b34801561012a57600080fd5b50610133610417565b005b34801561014157600080fd5b5061014a6105d6565b60405161015791906109c4565b60405180910390f35b61017a60048036038101906101759190610cf5565b6105dc565b005b34801561018857600080fd5b50610191610748565b60405161019e9190610d60565b60405180910390f35b3480156101b357600080fd5b506101bc61076c565b6040516101c99190610d7b565b60405180910390f35b3480156101de57600080fd5b506101f960048036038101906101f49190610d96565b6107c8565b005b6000600360003373ffffffffffffffffffffffffffffffffffffffff1673ffffffffffffffffffffffffffffffffffffffff16815260200190815260200160002060000154905090565b60008054906101000a900473ffffffffffffffffffffffffffffffffffffffff1673ffffffffffffffffffffffffffffffffffffffff163373ffffffffffffffffffffffffffffffffffffffff16146102d3576040517f08c379a00000000000000000000000000000000000000000000000000000000081526004016102ca90610e51565b60405180910390fd5b6064811115610317576040517f08c379a000000000000000000000000000000000000000000000000000000000815260040161030e90610ebd565b60405180910390fd5b806001819055507fee6d4887841e27ca9c2bca480cdf2c2f08c4c0d454228640a21db896c637f6c58160405161034d91906109c4565b60405180910390a150565b600360205280600052604060002060009150905080600001549080600101805461038190610f0c565b80601f01602080910402602001604051908101604052809291908181526020018280546103ad90610f0c565b80156103fa5780601f106103cf576101008083540402835291602001916103fa565b820191906000526020600020905b8154815290600101906020018083116103dd57829003601f168201915b5050505050908060020160009054906101000a900460ff16905083565b6000600360003373ffffffffffffffffffffffffffffffffffffffff1673ffffffffffffffffffffffffffffffffffffffff168152602001908152602001600020600001541161049c576040517f08c379a000000000000000000000000000000000000000000000000000000000815260040161049390610f89565b60405180910390fd5b6000600360003373ffffffffffffffffffffffffffffffffffffffff1673ffffffffffffffffffffffffffffffffffffffff1681526020019081526020016000206000015490506000600360003373ffffffffffffffffffffffffffffffffffffffff1673ffffffffffffffffffffffffffffffffffffffff168152602001908152602001600020600001819055503373ffffffffffffffffffffffffffffffffffffffff166108fc829081150290604051600060405180830381858888f19350505050158015610571573d6000803e3d6000fd5b507f6dc43518a6378d03782f237f8136a54531e715be249a172fd660caf3491e0a4b60405180604001604052803373ffffffffffffffffffffffffffffffffffffffff168152602001838152506040516105cb9190610ff6565b60405180910390a150565b60015481565b6000341161061f576040517f08c379a000000000000000000000000000000000000000000000000000000000815260040161061690611083565b60405180910390fd5b600060646001543461063191906110d2565b61063b9190611143565b90506000813461064b9190611174565b905080600360008673ffffffffffffffffffffffffffffffffffffffff1673ffffffffffffffffffffffffffffffffffffffff168152602001908152602001600020600001600082825461069f91906111a8565b9250508190555081600260008282546106b891906111a8565b925050819055507fe8c9ef71233a2f4eeacd377e083adb8dda50eceba95f4f15b9afac4fa99d67cf60405180608001604052803373ffffffffffffffffffffffffffffffffffffffff1681526020018673ffffffffffffffffffffffffffffffffffffffff1681526020018381526020018581525060405161073a9190611289565b60405180910390a150505050565b60008054906101000a900473ffffffffffffffffffffffffffffffffffffffff1681565b600080600360003373ffffffffffffffffffffffffffffffffffffffff1673ffffffffffffffffffffffffffffffffffffffff16815260200190815260200160002060020160009054906101000a900460ff1690508091505090565b600360003373ffffffffffffffffffffffffffffffffffffffff1673ffffffffffffffffffffffffffffffffffffffff16815260200190815260200160002060020160009054906101000a900460ff1615610858576040517f08c379a000000000000000000000000000000000000000000000000000000000815260040161084f906112f7565b60405180910390fd5b600081511161089c576040517f08c379a000000000000000000000000000000000000000000000000000000000815260040161089390611363565b60405180910390fd5b80600360003373ffffffffffffffffffffffffffffffffffffffff1673ffffffffffffffffffffffffffffffffffffffff16815260200190815260200160002060010190816108eb919061152f565b506001600360003373ffffffffffffffffffffffffffffffffffffffff1673ffffffffffffffffffffffffffffffffffffffff16815260200190815260200160002060020160006101000a81548160ff0219169083151502179055507f774b7775127d49ed4fa4077448f56fb6584b7ff03f6115bc9002dcf0c86973c560405180604001604052803373ffffffffffffffffffffffffffffffffffffffff168152602001838152506040516109a0919061163e565b60405180910390a150565b6000819050919050565b6109be816109ab565b82525050565b60006020820190506109d960008301846109b5565b92915050565b6000604051905090565b600080fd5b600080fd5b6109fc816109ab565b8114610a0757600080fd5b50565b600081359050610a19816109f3565b92915050565b600060208284031215610a3557610a346109e9565b5b6000610a4384828501610a0a565b91505092915050565b600073ffffffffffffffffffffffffffffffffffffffff82169050919050565b6000610a7782610a4c565b9050919050565b610a8781610a6c565b8114610a9257600080fd5b50565b600081359050610aa481610a7e565b92915050565b600060208284031215610ac057610abf6109e9565b5b6000610ace84828501610a95565b91505092915050565b600081519050919050565b600082825260208201905092915050565b60005b83811015610b11578082015181840152602081019050610af6565b60008484015250505050565b6000601f19601f8301169050919050565b6000610b3982610ad7565b610b438185610ae2565b9350610b53818560208601610af3565b610b5c81610b1d565b840191505092915050565b60008115159050919050565b610b7c81610b67565b82525050565b6000606082019050610b9760008301866109b5565b8181036020830152610ba98185610b2e565b9050610bb86040830184610b73565b949350505050565b600080fd5b600080fd5b7f4e487b7100000000000000000000000000000000000000000000000000000000600052604160045260246000fd5b610c0282610b1d565b810181811067ffffffffffffffff82111715610c2157610c20610bca565b5b80604052505050565b6000610c346109df565b9050610c408282610bf9565b919050565b600067ffffffffffffffff821115610c6057610c5f610bca565b5b610c6982610b1d565b9050602081019050919050565b82818337600083830152505050565b6000610c98610c9384610c45565b610c2a565b905082815260208101848484011115610cb457610cb3610bc5565b5b610cbf848285610c76565b509392505050565b600082601f830112610cdc57610cdb610bc0565b5b8135610cec848260208601610c85565b91505092915050565b60008060408385031215610d0c57610d0b6109e9565b5b6000610d1a85828601610a95565b925050602083013567ffffffffffffffff811115610d3b57610d3a6109ee565b5b610d4785828601610cc7565b9150509250929050565b610d5a81610a6c565b82525050565b6000602082019050610d756000830184610d51565b92915050565b6000602082019050610d906000830184610b73565b92915050565b600060208284031215610dac57610dab6109e9565b5b600082013567ffffffffffffffff811115610dca57610dc96109ee565b5b610dd684828501610cc7565b91505092915050565b7f4f6e6c79206f776e65722063616e2063616c6c20746869732066756e6374696f60008201527f6e00000000000000000000000000000000000000000000000000000000000000602082015250565b6000610e3b602183610ae2565b9150610e4682610ddf565b604082019050919050565b60006020820190508181036000830152610e6a81610e2e565b9050919050565b7f466565206d757374206265206265747765656e203020616e6420313030000000600082015250565b6000610ea7601d83610ae2565b9150610eb282610e71565b602082019050919050565b60006020820190508181036000830152610ed681610e9a565b9050919050565b7f4e487b7100000000000000000000000000000000000000000000000000000000600052602260045260246000fd5b60006002820490506001821680610f2457607f821691505b602082108103610f3757610f36610edd565b5b50919050565b7f496e73756666696369656e742062616c616e6365000000000000000000000000600082015250565b6000610f73601483610ae2565b9150610f7e82610f3d565b602082019050919050565b60006020820190508181036000830152610fa281610f66565b9050919050565b610fb281610a6c565b82525050565b610fc1816109ab565b82525050565b604082016000820151610fdd6000850182610fa9565b506020820151610ff06020850182610fb8565b50505050565b600060408201905061100b6000830184610fc7565b92915050565b7f446f6e6174696f6e20616d6f756e74206d75737420626520677265617465722060008201527f7468616e20300000000000000000000000000000000000000000000000000000602082015250565b600061106d602683610ae2565b915061107882611011565b604082019050919050565b6000602082019050818103600083015261109c81611060565b9050919050565b7f4e487b7100000000000000000000000000000000000000000000000000000000600052601160045260246000fd5b60006110dd826109ab565b91506110e8836109ab565b92508282026110f6816109ab565b9150828204841483151761110d5761110c6110a3565b5b5092915050565b7f4e487b7100000000000000000000000000000000000000000000000000000000600052601260045260246000fd5b600061114e826109ab565b9150611159836109ab565b92508261116957611168611114565b5b828204905092915050565b600061117f826109ab565b915061118a836109ab565b92508282039050818111156111a2576111a16110a3565b5b92915050565b60006111b3826109ab565b91506111be836109ab565b92508282019050808211156111d6576111d56110a3565b5b92915050565b600082825260208201905092915050565b60006111f882610ad7565b61120281856111dc565b9350611212818560208601610af3565b61121b81610b1d565b840191505092915050565b600060808301600083015161123e6000860182610fa9565b5060208301516112516020860182610fa9565b5060408301516112646040860182610fb8565b506060830151848203606086015261127c82826111ed565b9150508091505092915050565b600060208201905081810360008301526112a38184611226565b905092915050565b7f5573657220616c72656164792061637469766174656400000000000000000000600082015250565b60006112e1601683610ae2565b91506112ec826112ab565b602082019050919050565b60006020820190508181036000830152611310816112d4565b9050919050565b7f557365726e616d652063616e6e6f7420626520656d7074790000000000000000600082015250565b600061134d601883610ae2565b915061135882611317565b602082019050919050565b6000602082019050818103600083015261137c81611340565b9050919050565b60008190508160005260206000209050919050565b60006020601f8301049050919050565b600082821b905092915050565b6000600883026113e57fffffffffffffffffffffffffffffffffffffffffffffffffffffffffffffffff826113a8565b6113ef86836113a8565b95508019841693508086168417925050509392505050565b6000819050919050565b600061142c611427611422846109ab565b611407565b6109ab565b9050919050565b6000819050919050565b61144683611411565b61145a61145282611433565b8484546113b5565b825550505050565b600090565b61146f611462565b61147a81848461143d565b505050565b5b8181101561149e57611493600082611467565b600181019050611480565b5050565b601f8211156114e3576114b481611383565b6114bd84611398565b810160208510156114cc578190505b6114e06114d885611398565b83018261147f565b50505b505050565b600082821c905092915050565b6000611506600019846008026114e8565b1980831691505092915050565b600061151f83836114f5565b9150826002028217905092915050565b61153882610ad7565b67ffffffffffffffff81111561155157611550610bca565b5b61155b8254610f0c565b6115668282856114a2565b600060209050601f8311600181146115995760008415611587578287015190505b6115918582611513565b8655506115f9565b601f1984166115a786611383565b60005b828110156115cf578489015182556001820191506020850194506020810190506115aa565b868310156115ec57848901516115e8601f8916826114f5565b8355505b6001600288020188555050505b505050505050565b60006040830160008301516116196000860182610fa9565b506020830151848203602086015261163182826111ed565b9150508091505092915050565b600060208201905081810360008301526116588184611601565b90509291505056fea26469706673582212202ce0ee10152738d5dc5fa61a81ea522bd06112256b807993a143f7d73513776c64736f6c63430008180033",
          "opcodes": "PUSH1 0x80 PUSH1 0x40 MSTORE CALLVALUE DUP1 ISZERO PUSH3 0x11 JUMPI PUSH1 0x0 DUP1 REVERT JUMPDEST POP CALLER PUSH1 0x0 DUP1 PUSH2 0x100 EXP DUP2 SLOAD DUP2 PUSH20 0xFFFFFFFFFFFFFFFFFFFFFFFFFFFFFFFFFFFFFFFF MUL NOT AND SWAP1 DUP4 PUSH20 0xFFFFFFFFFFFFFFFFFFFFFFFFFFFFFFFFFFFFFFFF AND MUL OR SWAP1 SSTORE POP PUSH1 0x5 PUSH1 0x1 DUP2 SWAP1 SSTORE POP PUSH1 0x40 MLOAD DUP1 PUSH1 0x40 ADD PUSH1 0x40 MSTORE DUP1 PUSH1 0x5 DUP2 MSTORE PUSH1 0x20 ADD PUSH32 0x6F776E6572000000000000000000000000000000000000000000000000000000 DUP2 MSTORE POP PUSH1 0x3 PUSH1 0x0 CALLER PUSH20 0xFFFFFFFFFFFFFFFFFFFFFFFFFFFFFFFFFFFFFFFF AND PUSH20 0xFFFFFFFFFFFFFFFFFFFFFFFFFFFFFFFFFFFFFFFF AND DUP2 MSTORE PUSH1 0x20 ADD SWAP1 DUP2 MSTORE PUSH1 0x20 ADD PUSH1 0x0 KECCAK256 PUSH1 0x1 ADD SWAP1 DUP2 PUSH3 0xE0 SWAP2 SWAP1 PUSH3 0x361 JUMP JUMPDEST POP PUSH3 0x448 JUMP JUMPDEST PUSH1 0x0 DUP2 MLOAD SWAP1 POP SWAP2 SWAP1 POP JUMP JUMPDEST PUSH32 0x4E487B7100000000000000000000000000000000000000000000000000000000 PUSH1 0x0 MSTORE PUSH1 0x41 PUSH1 0x4 MSTORE PUSH1 0x24 PUSH1 0x0 REVERT JUMPDEST PUSH32 0x4E487B7100000000000000000000000000000000000000000000000000000000 PUSH1 0x0 MSTORE PUSH1 0x22 PUSH1 0x4 MSTORE PUSH1 0x24 PUSH1 0x0 REVERT JUMPDEST PUSH1 0x0 PUSH1 0x2 DUP3 DIV SWAP1 POP PUSH1 0x1 DUP3 AND DUP1 PUSH3 0x169 JUMPI PUSH1 0x7F DUP3 AND SWAP2 POP JUMPDEST PUSH1 0x20 DUP3 LT DUP2 SUB PUSH3 0x17F JUMPI PUSH3 0x17E PUSH3 0x121 JUMP JUMPDEST JUMPDEST POP SWAP2 SWAP1 POP JUMP JUMPDEST PUSH1 0x0 DUP2 SWAP1 POP DUP2 PUSH1 0x0 MSTORE PUSH1 0x20 PUSH1 0x0 KECCAK256 SWAP1 POP SWAP2 SWAP1 POP JUMP JUMPDEST PUSH1 0x0 PUSH1 0x20 PUSH1 0x1F DUP4 ADD DIV SWAP1 POP SWAP2 SWAP1 POP JUMP JUMPDEST PUSH1 0x0 DUP3 DUP3 SHL SWAP1 POP SWAP3 SWAP2 POP POP JUMP JUMPDEST PUSH1 0x0 PUSH1 0x8 DUP4 MUL PUSH3 0x1E9 PUSH32 0xFFFFFFFFFFFFFFFFFFFFFFFFFFFFFFFFFFFFFFFFFFFFFFFFFFFFFFFFFFFFFFFF DUP3 PUSH3 0x1AA JUMP JUMPDEST PUSH3 0x1F5 DUP7 DUP4 PUSH3 0x1AA JUMP JUMPDEST SWAP6 POP DUP1 NOT DUP5 AND SWAP4 POP DUP1 DUP7 AND DUP5 OR SWAP3 POP POP POP SWAP4 SWAP3 POP POP POP JUMP JUMPDEST PUSH1 0x0 DUP2 SWAP1 POP SWAP2 SWAP1 POP JUMP JUMPDEST PUSH1 0x0 DUP2 SWAP1 POP SWAP2 SWAP1 POP JUMP JUMPDEST PUSH1 0x0 PUSH3 0x242 PUSH3 0x23C PUSH3 0x236 DUP5 PUSH3 0x20D JUMP JUMPDEST PUSH3 0x217 JUMP JUMPDEST PUSH3 0x20D JUMP JUMPDEST SWAP1 POP SWAP2 SWAP1 POP JUMP JUMPDEST PUSH1 0x0 DUP2 SWAP1 POP SWAP2 SWAP1 POP JUMP JUMPDEST PUSH3 0x25E DUP4 PUSH3 0x221 JUMP JUMPDEST PUSH3 0x276 PUSH3 0x26D DUP3 PUSH3 0x249 JUMP JUMPDEST DUP5 DUP5 SLOAD PUSH3 0x1B7 JUMP JUMPDEST DUP3 SSTORE POP POP POP POP JUMP JUMPDEST PUSH1 0x0 SWAP1 JUMP JUMPDEST PUSH3 0x28D PUSH3 0x27E JUMP JUMPDEST PUSH3 0x29A DUP2 DUP5 DUP5 PUSH3 0x253 JUMP JUMPDEST POP POP POP JUMP JUMPDEST JUMPDEST DUP2 DUP2 LT ISZERO PUSH3 0x2C2 JUMPI PUSH3 0x2B6 PUSH1 0x0 DUP3 PUSH3 0x283 JUMP JUMPDEST PUSH1 0x1 DUP2 ADD SWAP1 POP PUSH3 0x2A0 JUMP JUMPDEST POP POP JUMP JUMPDEST PUSH1 0x1F DUP3 GT ISZERO PUSH3 0x311 JUMPI PUSH3 0x2DB DUP2 PUSH3 0x185 JUMP JUMPDEST PUSH3 0x2E6 DUP5 PUSH3 0x19A JUMP JUMPDEST DUP2 ADD PUSH1 0x20 DUP6 LT ISZERO PUSH3 0x2F6 JUMPI DUP2 SWAP1 POP JUMPDEST PUSH3 0x30E PUSH3 0x305 DUP6 PUSH3 0x19A JUMP JUMPDEST DUP4 ADD DUP3 PUSH3 0x29F JUMP JUMPDEST POP POP JUMPDEST POP POP POP JUMP JUMPDEST PUSH1 0x0 DUP3 DUP3 SHR SWAP1 POP SWAP3 SWAP2 POP POP JUMP JUMPDEST PUSH1 0x0 PUSH3 0x336 PUSH1 0x0 NOT DUP5 PUSH1 0x8 MUL PUSH3 0x316 JUMP JUMPDEST NOT DUP1 DUP4 AND SWAP2 POP POP SWAP3 SWAP2 POP POP JUMP JUMPDEST PUSH1 0x0 PUSH3 0x351 DUP4 DUP4 PUSH3 0x323 JUMP JUMPDEST SWAP2 POP DUP3 PUSH1 0x2 MUL DUP3 OR SWAP1 POP SWAP3 SWAP2 POP POP JUMP JUMPDEST PUSH3 0x36C DUP3 PUSH3 0xE7 JUMP JUMPDEST PUSH8 0xFFFFFFFFFFFFFFFF DUP2 GT ISZERO PUSH3 0x388 JUMPI PUSH3 0x387 PUSH3 0xF2 JUMP JUMPDEST JUMPDEST PUSH3 0x394 DUP3 SLOAD PUSH3 0x150 JUMP JUMPDEST PUSH3 0x3A1 DUP3 DUP3 DUP6 PUSH3 0x2C6 JUMP JUMPDEST PUSH1 0x0 PUSH1 0x20 SWAP1 POP PUSH1 0x1F DUP4 GT PUSH1 0x1 DUP2 EQ PUSH3 0x3D9 JUMPI PUSH1 0x0 DUP5 ISZERO PUSH3 0x3C4 JUMPI DUP3 DUP8 ADD MLOAD SWAP1 POP JUMPDEST PUSH3 0x3D0 DUP6 DUP3 PUSH3 0x343 JUMP JUMPDEST DUP7 SSTORE POP PUSH3 0x440 JUMP JUMPDEST PUSH1 0x1F NOT DUP5 AND PUSH3 0x3E9 DUP7 PUSH3 0x185 JUMP JUMPDEST PUSH1 0x0 JUMPDEST DUP3 DUP2 LT ISZERO PUSH3 0x413 JUMPI DUP5 DUP10 ADD MLOAD DUP3 SSTORE PUSH1 0x1 DUP3 ADD SWAP2 POP PUSH1 0x20 DUP6 ADD SWAP5 POP PUSH1 0x20 DUP2 ADD SWAP1 POP PUSH3 0x3EC JUMP JUMPDEST DUP7 DUP4 LT ISZERO PUSH3 0x433 JUMPI DUP5 DUP10 ADD MLOAD PUSH3 0x42F PUSH1 0x1F DUP10 AND DUP3 PUSH3 0x323 JUMP JUMPDEST DUP4 SSTORE POP JUMPDEST PUSH1 0x1 PUSH1 0x2 DUP9 MUL ADD DUP9 SSTORE POP POP POP JUMPDEST POP POP POP POP POP POP JUMP JUMPDEST PUSH2 0x1696 DUP1 PUSH3 0x458 PUSH1 0x0 CODECOPY PUSH1 0x0 RETURN INVALID PUSH1 0x80 PUSH1 0x40 MSTORE PUSH1 0x4 CALLDATASIZE LT PUSH2 0x86 JUMPI PUSH1 0x0 CALLDATALOAD PUSH1 0xE0 SHR DUP1 PUSH4 0x3D082266 GT PUSH2 0x59 JUMPI DUP1 PUSH4 0x3D082266 EQ PUSH2 0x135 JUMPI DUP1 PUSH4 0x429C14D7 EQ PUSH2 0x160 JUMPI DUP1 PUSH4 0x77C9DD4B EQ PUSH2 0x17C JUMPI DUP1 PUSH4 0x90872630 EQ PUSH2 0x1A7 JUMPI DUP1 PUSH4 0xA9514F31 EQ PUSH2 0x1D2 JUMPI PUSH2 0x86 JUMP JUMPDEST DUP1 PUSH4 0x12065FE0 EQ PUSH2 0x8B JUMPI DUP1 PUSH4 0x1CF85B9B EQ PUSH2 0xB6 JUMPI DUP1 PUSH4 0x26224C64 EQ PUSH2 0xDF JUMPI DUP1 PUSH4 0x3CCFD60B EQ PUSH2 0x11E JUMPI JUMPDEST PUSH1 0x0 DUP1 REVERT JUMPDEST CALLVALUE DUP1 ISZERO PUSH2 0x97 JUMPI PUSH1 0x0 DUP1 REVERT JUMPDEST POP PUSH2 0xA0 PUSH2 0x1FB JUMP JUMPDEST PUSH1 0x40 MLOAD PUSH2 0xAD SWAP2 SWAP1 PUSH2 0x9C4 JUMP JUMPDEST PUSH1 0x40 MLOAD DUP1 SWAP2 SUB SWAP1 RETURN JUMPDEST CALLVALUE DUP1 ISZERO PUSH2 0xC2 JUMPI PUSH1 0x0 DUP1 REVERT JUMPDEST POP PUSH2 0xDD PUSH1 0x4 DUP1 CALLDATASIZE SUB DUP2 ADD SWAP1 PUSH2 0xD8 SWAP2 SWAP1 PUSH2 0xA1F JUMP JUMPDEST PUSH2 0x245 JUMP JUMPDEST STOP JUMPDEST CALLVALUE DUP1 ISZERO PUSH2 0xEB JUMPI PUSH1 0x0 DUP1 REVERT JUMPDEST POP PUSH2 0x106 PUSH1 0x4 DUP1 CALLDATASIZE SUB DUP2 ADD SWAP1 PUSH2 0x101 SWAP2 SWAP1 PUSH2 0xAAA JUMP JUMPDEST PUSH2 0x358 JUMP JUMPDEST PUSH1 0x40 MLOAD PUSH2 0x115 SWAP4 SWAP3 SWAP2 SWAP1 PUSH2 0xB82 JUMP JUMPDEST PUSH1 0x40 MLOAD DUP1 SWAP2 SUB SWAP1 RETURN JUMPDEST CALLVALUE DUP1 ISZERO PUSH2 0x12A JUMPI PUSH1 0x0 DUP1 REVERT JUMPDEST POP PUSH2 0x133 PUSH2 0x417 JUMP JUMPDEST STOP JUMPDEST CALLVALUE DUP1 ISZERO PUSH2 0x141 JUMPI PUSH1 0x0 DUP1 REVERT JUMPDEST POP PUSH2 0x14A PUSH2 0x5D6 JUMP JUMPDEST PUSH1 0x40 MLOAD PUSH2 0x157 SWAP2 SWAP1 PUSH2 0x9C4 JUMP JUMPDEST PUSH1 0x40 MLOAD DUP1 SWAP2 SUB SWAP1 RETURN JUMPDEST PUSH2 0x17A PUSH1 0x4 DUP1 CALLDATASIZE SUB DUP2 ADD SWAP1 PUSH2 0x175 SWAP2 SWAP1 PUSH2 0xCF5 JUMP JUMPDEST PUSH2 0x5DC JUMP JUMPDEST STOP JUMPDEST CALLVALUE DUP1 ISZERO PUSH2 0x188 JUMPI PUSH1 0x0 DUP1 REVERT JUMPDEST POP PUSH2 0x191 PUSH2 0x748 JUMP JUMPDEST PUSH1 0x40 MLOAD PUSH2 0x19E SWAP2 SWAP1 PUSH2 0xD60 JUMP JUMPDEST PUSH1 0x40 MLOAD DUP1 SWAP2 SUB SWAP1 RETURN JUMPDEST CALLVALUE DUP1 ISZERO PUSH2 0x1B3 JUMPI PUSH1 0x0 DUP1 REVERT JUMPDEST POP PUSH2 0x1BC PUSH2 0x76C JUMP JUMPDEST PUSH1 0x40 MLOAD PUSH2 0x1C9 SWAP2 SWAP1 PUSH2 0xD7B JUMP JUMPDEST PUSH1 0x40 MLOAD DUP1 SWAP2 SUB SWAP1 RETURN JUMPDEST CALLVALUE DUP1 ISZERO PUSH2 0x1DE JUMPI PUSH1 0x0 DUP1 REVERT JUMPDEST POP PUSH2 0x1F9 PUSH1 0x4 DUP1 CALLDATASIZE SUB DUP2 ADD SWAP1 PUSH2 0x1F4 SWAP2 SWAP1 PUSH2 0xD96 JUMP JUMPDEST PUSH2 0x7C8 JUMP JUMPDEST STOP JUMPDEST PUSH1 0x0 PUSH1 0x3 PUSH1 0x0 CALLER PUSH20 0xFFFFFFFFFFFFFFFFFFFFFFFFFFFFFFFFFFFFFFFF AND PUSH20 0xFFFFFFFFFFFFFFFFFFFFFFFFFFFFFFFFFFFFFFFF AND DUP2 MSTORE PUSH1 0x20 ADD SWAP1 DUP2 MSTORE PUSH1 0x20 ADD PUSH1 0x0 KECCAK256 PUSH1 0x0 ADD SLOAD SWAP1 POP SWAP1 JUMP JUMPDEST PUSH1 0x0 DUP1 SLOAD SWAP1 PUSH2 0x100 EXP SWAP1 DIV PUSH20 0xFFFFFFFFFFFFFFFFFFFFFFFFFFFFFFFFFFFFFFFF AND PUSH20 0xFFFFFFFFFFFFFFFFFFFFFFFFFFFFFFFFFFFFFFFF AND CALLER PUSH20 0xFFFFFFFFFFFFFFFFFFFFFFFFFFFFFFFFFFFFFFFF AND EQ PUSH2 0x2D3 JUMPI PUSH1 0x40 MLOAD PUSH32 0x8C379A000000000000000000000000000000000000000000000000000000000 DUP2 MSTORE PUSH1 0x4 ADD PUSH2 0x2CA SWAP1 PUSH2 0xE51 JUMP JUMPDEST PUSH1 0x40 MLOAD DUP1 SWAP2 SUB SWAP1 REVERT JUMPDEST PUSH1 0x64 DUP2 GT ISZERO PUSH2 0x317 JUMPI PUSH1 0x40 MLOAD PUSH32 0x8C379A000000000000000000000000000000000000000000000000000000000 DUP2 MSTORE PUSH1 0x4 ADD PUSH2 0x30E SWAP1 PUSH2 0xEBD JUMP JUMPDEST PUSH1 0x40 MLOAD DUP1 SWAP2 SUB SWAP1 REVERT JUMPDEST DUP1 PUSH1 0x1 DUP2 SWAP1 SSTORE POP PUSH32 0xEE6D4887841E27CA9C2BCA480CDF2C2F08C4C0D454228640A21DB896C637F6C5 DUP2 PUSH1 0x40 MLOAD PUSH2 0x34D SWAP2 SWAP1 PUSH2 0x9C4 JUMP JUMPDEST PUSH1 0x40 MLOAD DUP1 SWAP2 SUB SWAP1 LOG1 POP JUMP JUMPDEST PUSH1 0x3 PUSH1 0x20 MSTORE DUP1 PUSH1 0x0 MSTORE PUSH1 0x40 PUSH1 0x0 KECCAK256 PUSH1 0x0 SWAP2 POP SWAP1 POP DUP1 PUSH1 0x0 ADD SLOAD SWAP1 DUP1 PUSH1 0x1 ADD DUP1 SLOAD PUSH2 0x381 SWAP1 PUSH2 0xF0C JUMP JUMPDEST DUP1 PUSH1 0x1F ADD PUSH1 0x20 DUP1 SWAP2 DIV MUL PUSH1 0x20 ADD PUSH1 0x40 MLOAD SWAP1 DUP2 ADD PUSH1 0x40 MSTORE DUP1 SWAP3 SWAP2 SWAP1 DUP2 DUP2 MSTORE PUSH1 0x20 ADD DUP3 DUP1 SLOAD PUSH2 0x3AD SWAP1 PUSH2 0xF0C JUMP JUMPDEST DUP1 ISZERO PUSH2 0x3FA JUMPI DUP1 PUSH1 0x1F LT PUSH2 0x3CF JUMPI PUSH2 0x100 DUP1 DUP4 SLOAD DIV MUL DUP4 MSTORE SWAP2 PUSH1 0x20 ADD SWAP2 PUSH2 0x3FA JUMP JUMPDEST DUP3 ADD SWAP2 SWAP1 PUSH1 0x0 MSTORE PUSH1 0x20 PUSH1 0x0 KECCAK256 SWAP1 JUMPDEST DUP2 SLOAD DUP2 MSTORE SWAP1 PUSH1 0x1 ADD SWAP1 PUSH1 0x20 ADD DUP1 DUP4 GT PUSH2 0x3DD JUMPI DUP3 SWAP1 SUB PUSH1 0x1F AND DUP3 ADD SWAP2 JUMPDEST POP POP POP POP POP SWAP1 DUP1 PUSH1 0x2 ADD PUSH1 0x0 SWAP1 SLOAD SWAP1 PUSH2 0x100 EXP SWAP1 DIV PUSH1 0xFF AND SWAP1 POP DUP4 JUMP JUMPDEST PUSH1 0x0 PUSH1 0x3 PUSH1 0x0 CALLER PUSH20 0xFFFFFFFFFFFFFFFFFFFFFFFFFFFFFFFFFFFFFFFF AND PUSH20 0xFFFFFFFFFFFFFFFFFFFFFFFFFFFFFFFFFFFFFFFF AND DUP2 MSTORE PUSH1 0x20 ADD SWAP1 DUP2 MSTORE PUSH1 0x20 ADD PUSH1 0x0 KECCAK256 PUSH1 0x0 ADD SLOAD GT PUSH2 0x49C JUMPI PUSH1 0x40 MLOAD PUSH32 0x8C379A000000000000000000000000000000000000000000000000000000000 DUP2 MSTORE PUSH1 0x4 ADD PUSH2 0x493 SWAP1 PUSH2 0xF89 JUMP JUMPDEST PUSH1 0x40 MLOAD DUP1 SWAP2 SUB SWAP1 REVERT JUMPDEST PUSH1 0x0 PUSH1 0x3 PUSH1 0x0 CALLER PUSH20 0xFFFFFFFFFFFFFFFFFFFFFFFFFFFFFFFFFFFFFFFF AND PUSH20 0xFFFFFFFFFFFFFFFFFFFFFFFFFFFFFFFFFFFFFFFF AND DUP2 MSTORE PUSH1 0x20 ADD SWAP1 DUP2 MSTORE PUSH1 0x20 ADD PUSH1 0x0 KECCAK256 PUSH1 0x0 ADD SLOAD SWAP1 POP PUSH1 0x0 PUSH1 0x3 PUSH1 0x0 CALLER PUSH20 0xFFFFFFFFFFFFFFFFFFFFFFFFFFFFFFFFFFFFFFFF AND PUSH20 0xFFFFFFFFFFFFFFFFFFFFFFFFFFFFFFFFFFFFFFFF AND DUP2 MSTORE PUSH1 0x20 ADD SWAP1 DUP2 MSTORE PUSH1 0x20 ADD PUSH1 0x0 KECCAK256 PUSH1 0x0 ADD DUP2 SWAP1 SSTORE POP CALLER PUSH20 0xFFFFFFFFFFFFFFFFFFFFFFFFFFFFFFFFFFFFFFFF AND PUSH2 0x8FC DUP3 SWAP1 DUP2 ISZERO MUL SWAP1 PUSH1 0x40 MLOAD PUSH1 0x0 PUSH1 0x40 MLOAD DUP1 DUP4 SUB DUP2 DUP6 DUP9 DUP9 CALL SWAP4 POP POP POP POP ISZERO DUP1 ISZERO PUSH2 0x571 JUMPI RETURNDATASIZE PUSH1 0x0 DUP1 RETURNDATACOPY RETURNDATASIZE PUSH1 0x0 REVERT JUMPDEST POP PUSH32 0x6DC43518A6378D03782F237F8136A54531E715BE249A172FD660CAF3491E0A4B PUSH1 0x40 MLOAD DUP1 PUSH1 0x40 ADD PUSH1 0x40 MSTORE DUP1 CALLER PUSH20 0xFFFFFFFFFFFFFFFFFFFFFFFFFFFFFFFFFFFFFFFF AND DUP2 MSTORE PUSH1 0x20 ADD DUP4 DUP2 MSTORE POP PUSH1 0x40 MLOAD PUSH2 0x5CB SWAP2 SWAP1 PUSH2 0xFF6 JUMP JUMPDEST PUSH1 0x40 MLOAD DUP1 SWAP2 SUB SWAP1 LOG1 POP JUMP JUMPDEST PUSH1 0x1 SLOAD DUP2 JUMP JUMPDEST PUSH1 0x0 CALLVALUE GT PUSH2 0x61F JUMPI PUSH1 0x40 MLOAD PUSH32 0x8C379A000000000000000000000000000000000000000000000000000000000 DUP2 MSTORE PUSH1 0x4 ADD PUSH2 0x616 SWAP1 PUSH2 0x1083 JUMP JUMPDEST PUSH1 0x40 MLOAD DUP1 SWAP2 SUB SWAP1 REVERT JUMPDEST PUSH1 0x0 PUSH1 0x64 PUSH1 0x1 SLOAD CALLVALUE PUSH2 0x631 SWAP2 SWAP1 PUSH2 0x10D2 JUMP JUMPDEST PUSH2 0x63B SWAP2 SWAP1 PUSH2 0x1143 JUMP JUMPDEST SWAP1 POP PUSH1 0x0 DUP2 CALLVALUE PUSH2 0x64B SWAP2 SWAP1 PUSH2 0x1174 JUMP JUMPDEST SWAP1 POP DUP1 PUSH1 0x3 PUSH1 0x0 DUP7 PUSH20 0xFFFFFFFFFFFFFFFFFFFFFFFFFFFFFFFFFFFFFFFF AND PUSH20 0xFFFFFFFFFFFFFFFFFFFFFFFFFFFFFFFFFFFFFFFF AND DUP2 MSTORE PUSH1 0x20 ADD SWAP1 DUP2 MSTORE PUSH1 0x20 ADD PUSH1 0x0 KECCAK256 PUSH1 0x0 ADD PUSH1 0x0 DUP3 DUP3 SLOAD PUSH2 0x69F SWAP2 SWAP1 PUSH2 0x11A8 JUMP JUMPDEST SWAP3 POP POP DUP2 SWAP1 SSTORE POP DUP2 PUSH1 0x2 PUSH1 0x0 DUP3 DUP3 SLOAD PUSH2 0x6B8 SWAP2 SWAP1 PUSH2 0x11A8 JUMP JUMPDEST SWAP3 POP POP DUP2 SWAP1 SSTORE POP PUSH32 0xE8C9EF71233A2F4EEACD377E083ADB8DDA50ECEBA95F4F15B9AFAC4FA99D67CF PUSH1 0x40 MLOAD DUP1 PUSH1 0x80 ADD PUSH1 0x40 MSTORE DUP1 CALLER PUSH20 0xFFFFFFFFFFFFFFFFFFFFFFFFFFFFFFFFFFFFFFFF AND DUP2 MSTORE PUSH1 0x20 ADD DUP7 PUSH20 0xFFFFFFFFFFFFFFFFFFFFFFFFFFFFFFFFFFFFFFFF AND DUP2 MSTORE PUSH1 0x20 ADD DUP4 DUP2 MSTORE PUSH1 0x20 ADD DUP6 DUP2 MSTORE POP PUSH1 0x40 MLOAD PUSH2 0x73A SWAP2 SWAP1 PUSH2 0x1289 JUMP JUMPDEST PUSH1 0x40 MLOAD DUP1 SWAP2 SUB SWAP1 LOG1 POP POP POP POP JUMP JUMPDEST PUSH1 0x0 DUP1 SLOAD SWAP1 PUSH2 0x100 EXP SWAP1 DIV PUSH20 0xFFFFFFFFFFFFFFFFFFFFFFFFFFFFFFFFFFFFFFFF AND DUP2 JUMP JUMPDEST PUSH1 0x0 DUP1 PUSH1 0x3 PUSH1 0x0 CALLER PUSH20 0xFFFFFFFFFFFFFFFFFFFFFFFFFFFFFFFFFFFFFFFF AND PUSH20 0xFFFFFFFFFFFFFFFFFFFFFFFFFFFFFFFFFFFFFFFF AND DUP2 MSTORE PUSH1 0x20 ADD SWAP1 DUP2 MSTORE PUSH1 0x20 ADD PUSH1 0x0 KECCAK256 PUSH1 0x2 ADD PUSH1 0x0 SWAP1 SLOAD SWAP1 PUSH2 0x100 EXP SWAP1 DIV PUSH1 0xFF AND SWAP1 POP DUP1 SWAP2 POP POP SWAP1 JUMP JUMPDEST PUSH1 0x3 PUSH1 0x0 CALLER PUSH20 0xFFFFFFFFFFFFFFFFFFFFFFFFFFFFFFFFFFFFFFFF AND PUSH20 0xFFFFFFFFFFFFFFFFFFFFFFFFFFFFFFFFFFFFFFFF AND DUP2 MSTORE PUSH1 0x20 ADD SWAP1 DUP2 MSTORE PUSH1 0x20 ADD PUSH1 0x0 KECCAK256 PUSH1 0x2 ADD PUSH1 0x0 SWAP1 SLOAD SWAP1 PUSH2 0x100 EXP SWAP1 DIV PUSH1 0xFF AND ISZERO PUSH2 0x858 JUMPI PUSH1 0x40 MLOAD PUSH32 0x8C379A000000000000000000000000000000000000000000000000000000000 DUP2 MSTORE PUSH1 0x4 ADD PUSH2 0x84F SWAP1 PUSH2 0x12F7 JUMP JUMPDEST PUSH1 0x40 MLOAD DUP1 SWAP2 SUB SWAP1 REVERT JUMPDEST PUSH1 0x0 DUP2 MLOAD GT PUSH2 0x89C JUMPI PUSH1 0x40 MLOAD PUSH32 0x8C379A000000000000000000000000000000000000000000000000000000000 DUP2 MSTORE PUSH1 0x4 ADD PUSH2 0x893 SWAP1 PUSH2 0x1363 JUMP JUMPDEST PUSH1 0x40 MLOAD DUP1 SWAP2 SUB SWAP1 REVERT JUMPDEST DUP1 PUSH1 0x3 PUSH1 0x0 CALLER PUSH20 0xFFFFFFFFFFFFFFFFFFFFFFFFFFFFFFFFFFFFFFFF AND PUSH20 0xFFFFFFFFFFFFFFFFFFFFFFFFFFFFFFFFFFFFFFFF AND DUP2 MSTORE PUSH1 0x20 ADD SWAP1 DUP2 MSTORE PUSH1 0x20 ADD PUSH1 0x0 KECCAK256 PUSH1 0x1 ADD SWAP1 DUP2 PUSH2 0x8EB SWAP2 SWAP1 PUSH2 0x152F JUMP JUMPDEST POP PUSH1 0x1 PUSH1 0x3 PUSH1 0x0 CALLER PUSH20 0xFFFFFFFFFFFFFFFFFFFFFFFFFFFFFFFFFFFFFFFF AND PUSH20 0xFFFFFFFFFFFFFFFFFFFFFFFFFFFFFFFFFFFFFFFF AND DUP2 MSTORE PUSH1 0x20 ADD SWAP1 DUP2 MSTORE PUSH1 0x20 ADD PUSH1 0x0 KECCAK256 PUSH1 0x2 ADD PUSH1 0x0 PUSH2 0x100 EXP DUP2 SLOAD DUP2 PUSH1 0xFF MUL NOT AND SWAP1 DUP4 ISZERO ISZERO MUL OR SWAP1 SSTORE POP PUSH32 0x774B7775127D49ED4FA4077448F56FB6584B7FF03F6115BC9002DCF0C86973C5 PUSH1 0x40 MLOAD DUP1 PUSH1 0x40 ADD PUSH1 0x40 MSTORE DUP1 CALLER PUSH20 0xFFFFFFFFFFFFFFFFFFFFFFFFFFFFFFFFFFFFFFFF AND DUP2 MSTORE PUSH1 0x20 ADD DUP4 DUP2 MSTORE POP PUSH1 0x40 MLOAD PUSH2 0x9A0 SWAP2 SWAP1 PUSH2 0x163E JUMP JUMPDEST PUSH1 0x40 MLOAD DUP1 SWAP2 SUB SWAP1 LOG1 POP JUMP JUMPDEST PUSH1 0x0 DUP2 SWAP1 POP SWAP2 SWAP1 POP JUMP JUMPDEST PUSH2 0x9BE DUP2 PUSH2 0x9AB JUMP JUMPDEST DUP3 MSTORE POP POP JUMP JUMPDEST PUSH1 0x0 PUSH1 0x20 DUP3 ADD SWAP1 POP PUSH2 0x9D9 PUSH1 0x0 DUP4 ADD DUP5 PUSH2 0x9B5 JUMP JUMPDEST SWAP3 SWAP2 POP POP JUMP JUMPDEST PUSH1 0x0 PUSH1 0x40 MLOAD SWAP1 POP SWAP1 JUMP JUMPDEST PUSH1 0x0 DUP1 REVERT JUMPDEST PUSH1 0x0 DUP1 REVERT JUMPDEST PUSH2 0x9FC DUP2 PUSH2 0x9AB JUMP JUMPDEST DUP2 EQ PUSH2 0xA07 JUMPI PUSH1 0x0 DUP1 REVERT JUMPDEST POP JUMP JUMPDEST PUSH1 0x0 DUP2 CALLDATALOAD SWAP1 POP PUSH2 0xA19 DUP2 PUSH2 0x9F3 JUMP JUMPDEST SWAP3 SWAP2 POP POP JUMP JUMPDEST PUSH1 0x0 PUSH1 0x20 DUP3 DUP5 SUB SLT ISZERO PUSH2 0xA35 JUMPI PUSH2 0xA34 PUSH2 0x9E9 JUMP JUMPDEST JUMPDEST PUSH1 0x0 PUSH2 0xA43 DUP5 DUP3 DUP6 ADD PUSH2 0xA0A JUMP JUMPDEST SWAP2 POP POP SWAP3 SWAP2 POP POP JUMP JUMPDEST PUSH1 0x0 PUSH20 0xFFFFFFFFFFFFFFFFFFFFFFFFFFFFFFFFFFFFFFFF DUP3 AND SWAP1 POP SWAP2 SWAP1 POP JUMP JUMPDEST PUSH1 0x0 PUSH2 0xA77 DUP3 PUSH2 0xA4C JUMP JUMPDEST SWAP1 POP SWAP2 SWAP1 POP JUMP JUMPDEST PUSH2 0xA87 DUP2 PUSH2 0xA6C JUMP JUMPDEST DUP2 EQ PUSH2 0xA92 JUMPI PUSH1 0x0 DUP1 REVERT JUMPDEST POP JUMP JUMPDEST PUSH1 0x0 DUP2 CALLDATALOAD SWAP1 POP PUSH2 0xAA4 DUP2 PUSH2 0xA7E JUMP JUMPDEST SWAP3 SWAP2 POP POP JUMP JUMPDEST PUSH1 0x0 PUSH1 0x20 DUP3 DUP5 SUB SLT ISZERO PUSH2 0xAC0 JUMPI PUSH2 0xABF PUSH2 0x9E9 JUMP JUMPDEST JUMPDEST PUSH1 0x0 PUSH2 0xACE DUP5 DUP3 DUP6 ADD PUSH2 0xA95 JUMP JUMPDEST SWAP2 POP POP SWAP3 SWAP2 POP POP JUMP JUMPDEST PUSH1 0x0 DUP2 MLOAD SWAP1 POP SWAP2 SWAP1 POP JUMP JUMPDEST PUSH1 0x0 DUP3 DUP3 MSTORE PUSH1 0x20 DUP3 ADD SWAP1 POP SWAP3 SWAP2 POP POP JUMP JUMPDEST PUSH1 0x0 JUMPDEST DUP4 DUP2 LT ISZERO PUSH2 0xB11 JUMPI DUP1 DUP3 ADD MLOAD DUP2 DUP5 ADD MSTORE PUSH1 0x20 DUP2 ADD SWAP1 POP PUSH2 0xAF6 JUMP JUMPDEST PUSH1 0x0 DUP5 DUP5 ADD MSTORE POP POP POP POP JUMP JUMPDEST PUSH1 0x0 PUSH1 0x1F NOT PUSH1 0x1F DUP4 ADD AND SWAP1 POP SWAP2 SWAP1 POP JUMP JUMPDEST PUSH1 0x0 PUSH2 0xB39 DUP3 PUSH2 0xAD7 JUMP JUMPDEST PUSH2 0xB43 DUP2 DUP6 PUSH2 0xAE2 JUMP JUMPDEST SWAP4 POP PUSH2 0xB53 DUP2 DUP6 PUSH1 0x20 DUP7 ADD PUSH2 0xAF3 JUMP JUMPDEST PUSH2 0xB5C DUP2 PUSH2 0xB1D JUMP JUMPDEST DUP5 ADD SWAP2 POP POP SWAP3 SWAP2 POP POP JUMP JUMPDEST PUSH1 0x0 DUP2 ISZERO ISZERO SWAP1 POP SWAP2 SWAP1 POP JUMP JUMPDEST PUSH2 0xB7C DUP2 PUSH2 0xB67 JUMP JUMPDEST DUP3 MSTORE POP POP JUMP JUMPDEST PUSH1 0x0 PUSH1 0x60 DUP3 ADD SWAP1 POP PUSH2 0xB97 PUSH1 0x0 DUP4 ADD DUP7 PUSH2 0x9B5 JUMP JUMPDEST DUP2 DUP2 SUB PUSH1 0x20 DUP4 ADD MSTORE PUSH2 0xBA9 DUP2 DUP6 PUSH2 0xB2E JUMP JUMPDEST SWAP1 POP PUSH2 0xBB8 PUSH1 0x40 DUP4 ADD DUP5 PUSH2 0xB73 JUMP JUMPDEST SWAP5 SWAP4 POP POP POP POP JUMP JUMPDEST PUSH1 0x0 DUP1 REVERT JUMPDEST PUSH1 0x0 DUP1 REVERT JUMPDEST PUSH32 0x4E487B7100000000000000000000000000000000000000000000000000000000 PUSH1 0x0 MSTORE PUSH1 0x41 PUSH1 0x4 MSTORE PUSH1 0x24 PUSH1 0x0 REVERT JUMPDEST PUSH2 0xC02 DUP3 PUSH2 0xB1D JUMP JUMPDEST DUP2 ADD DUP2 DUP2 LT PUSH8 0xFFFFFFFFFFFFFFFF DUP3 GT OR ISZERO PUSH2 0xC21 JUMPI PUSH2 0xC20 PUSH2 0xBCA JUMP JUMPDEST JUMPDEST DUP1 PUSH1 0x40 MSTORE POP POP POP JUMP JUMPDEST PUSH1 0x0 PUSH2 0xC34 PUSH2 0x9DF JUMP JUMPDEST SWAP1 POP PUSH2 0xC40 DUP3 DUP3 PUSH2 0xBF9 JUMP JUMPDEST SWAP2 SWAP1 POP JUMP JUMPDEST PUSH1 0x0 PUSH8 0xFFFFFFFFFFFFFFFF DUP3 GT ISZERO PUSH2 0xC60 JUMPI PUSH2 0xC5F PUSH2 0xBCA JUMP JUMPDEST JUMPDEST PUSH2 0xC69 DUP3 PUSH2 0xB1D JUMP JUMPDEST SWAP1 POP PUSH1 0x20 DUP2 ADD SWAP1 POP SWAP2 SWAP1 POP JUMP JUMPDEST DUP3 DUP2 DUP4 CALLDATACOPY PUSH1 0x0 DUP4 DUP4 ADD MSTORE POP POP POP JUMP JUMPDEST PUSH1 0x0 PUSH2 0xC98 PUSH2 0xC93 DUP5 PUSH2 0xC45 JUMP JUMPDEST PUSH2 0xC2A JUMP JUMPDEST SWAP1 POP DUP3 DUP2 MSTORE PUSH1 0x20 DUP2 ADD DUP5 DUP5 DUP5 ADD GT ISZERO PUSH2 0xCB4 JUMPI PUSH2 0xCB3 PUSH2 0xBC5 JUMP JUMPDEST JUMPDEST PUSH2 0xCBF DUP5 DUP3 DUP6 PUSH2 0xC76 JUMP JUMPDEST POP SWAP4 SWAP3 POP POP POP JUMP JUMPDEST PUSH1 0x0 DUP3 PUSH1 0x1F DUP4 ADD SLT PUSH2 0xCDC JUMPI PUSH2 0xCDB PUSH2 0xBC0 JUMP JUMPDEST JUMPDEST DUP2 CALLDATALOAD PUSH2 0xCEC DUP5 DUP3 PUSH1 0x20 DUP7 ADD PUSH2 0xC85 JUMP JUMPDEST SWAP2 POP POP SWAP3 SWAP2 POP POP JUMP JUMPDEST PUSH1 0x0 DUP1 PUSH1 0x40 DUP4 DUP6 SUB SLT ISZERO PUSH2 0xD0C JUMPI PUSH2 0xD0B PUSH2 0x9E9 JUMP JUMPDEST JUMPDEST PUSH1 0x0 PUSH2 0xD1A DUP6 DUP3 DUP7 ADD PUSH2 0xA95 JUMP JUMPDEST SWAP3 POP POP PUSH1 0x20 DUP4 ADD CALLDATALOAD PUSH8 0xFFFFFFFFFFFFFFFF DUP2 GT ISZERO PUSH2 0xD3B JUMPI PUSH2 0xD3A PUSH2 0x9EE JUMP JUMPDEST JUMPDEST PUSH2 0xD47 DUP6 DUP3 DUP7 ADD PUSH2 0xCC7 JUMP JUMPDEST SWAP2 POP POP SWAP3 POP SWAP3 SWAP1 POP JUMP JUMPDEST PUSH2 0xD5A DUP2 PUSH2 0xA6C JUMP JUMPDEST DUP3 MSTORE POP POP JUMP JUMPDEST PUSH1 0x0 PUSH1 0x20 DUP3 ADD SWAP1 POP PUSH2 0xD75 PUSH1 0x0 DUP4 ADD DUP5 PUSH2 0xD51 JUMP JUMPDEST SWAP3 SWAP2 POP POP JUMP JUMPDEST PUSH1 0x0 PUSH1 0x20 DUP3 ADD SWAP1 POP PUSH2 0xD90 PUSH1 0x0 DUP4 ADD DUP5 PUSH2 0xB73 JUMP JUMPDEST SWAP3 SWAP2 POP POP JUMP JUMPDEST PUSH1 0x0 PUSH1 0x20 DUP3 DUP5 SUB SLT ISZERO PUSH2 0xDAC JUMPI PUSH2 0xDAB PUSH2 0x9E9 JUMP JUMPDEST JUMPDEST PUSH1 0x0 DUP3 ADD CALLDATALOAD PUSH8 0xFFFFFFFFFFFFFFFF DUP2 GT ISZERO PUSH2 0xDCA JUMPI PUSH2 0xDC9 PUSH2 0x9EE JUMP JUMPDEST JUMPDEST PUSH2 0xDD6 DUP5 DUP3 DUP6 ADD PUSH2 0xCC7 JUMP JUMPDEST SWAP2 POP POP SWAP3 SWAP2 POP POP JUMP JUMPDEST PUSH32 0x4F6E6C79206F776E65722063616E2063616C6C20746869732066756E6374696F PUSH1 0x0 DUP3 ADD MSTORE PUSH32 0x6E00000000000000000000000000000000000000000000000000000000000000 PUSH1 0x20 DUP3 ADD MSTORE POP JUMP JUMPDEST PUSH1 0x0 PUSH2 0xE3B PUSH1 0x21 DUP4 PUSH2 0xAE2 JUMP JUMPDEST SWAP2 POP PUSH2 0xE46 DUP3 PUSH2 0xDDF JUMP JUMPDEST PUSH1 0x40 DUP3 ADD SWAP1 POP SWAP2 SWAP1 POP JUMP JUMPDEST PUSH1 0x0 PUSH1 0x20 DUP3 ADD SWAP1 POP DUP2 DUP2 SUB PUSH1 0x0 DUP4 ADD MSTORE PUSH2 0xE6A DUP2 PUSH2 0xE2E JUMP JUMPDEST SWAP1 POP SWAP2 SWAP1 POP JUMP JUMPDEST PUSH32 0x466565206D757374206265206265747765656E203020616E6420313030000000 PUSH1 0x0 DUP3 ADD MSTORE POP JUMP JUMPDEST PUSH1 0x0 PUSH2 0xEA7 PUSH1 0x1D DUP4 PUSH2 0xAE2 JUMP JUMPDEST SWAP2 POP PUSH2 0xEB2 DUP3 PUSH2 0xE71 JUMP JUMPDEST PUSH1 0x20 DUP3 ADD SWAP1 POP SWAP2 SWAP1 POP JUMP JUMPDEST PUSH1 0x0 PUSH1 0x20 DUP3 ADD SWAP1 POP DUP2 DUP2 SUB PUSH1 0x0 DUP4 ADD MSTORE PUSH2 0xED6 DUP2 PUSH2 0xE9A JUMP JUMPDEST SWAP1 POP SWAP2 SWAP1 POP JUMP JUMPDEST PUSH32 0x4E487B7100000000000000000000000000000000000000000000000000000000 PUSH1 0x0 MSTORE PUSH1 0x22 PUSH1 0x4 MSTORE PUSH1 0x24 PUSH1 0x0 REVERT JUMPDEST PUSH1 0x0 PUSH1 0x2 DUP3 DIV SWAP1 POP PUSH1 0x1 DUP3 AND DUP1 PUSH2 0xF24 JUMPI PUSH1 0x7F DUP3 AND SWAP2 POP JUMPDEST PUSH1 0x20 DUP3 LT DUP2 SUB PUSH2 0xF37 JUMPI PUSH2 0xF36 PUSH2 0xEDD JUMP JUMPDEST JUMPDEST POP SWAP2 SWAP1 POP JUMP JUMPDEST PUSH32 0x496E73756666696369656E742062616C616E6365000000000000000000000000 PUSH1 0x0 DUP3 ADD MSTORE POP JUMP JUMPDEST PUSH1 0x0 PUSH2 0xF73 PUSH1 0x14 DUP4 PUSH2 0xAE2 JUMP JUMPDEST SWAP2 POP PUSH2 0xF7E DUP3 PUSH2 0xF3D JUMP JUMPDEST PUSH1 0x20 DUP3 ADD SWAP1 POP SWAP2 SWAP1 POP JUMP JUMPDEST PUSH1 0x0 PUSH1 0x20 DUP3 ADD SWAP1 POP DUP2 DUP2 SUB PUSH1 0x0 DUP4 ADD MSTORE PUSH2 0xFA2 DUP2 PUSH2 0xF66 JUMP JUMPDEST SWAP1 POP SWAP2 SWAP1 POP JUMP JUMPDEST PUSH2 0xFB2 DUP2 PUSH2 0xA6C JUMP JUMPDEST DUP3 MSTORE POP POP JUMP JUMPDEST PUSH2 0xFC1 DUP2 PUSH2 0x9AB JUMP JUMPDEST DUP3 MSTORE POP POP JUMP JUMPDEST PUSH1 0x40 DUP3 ADD PUSH1 0x0 DUP3 ADD MLOAD PUSH2 0xFDD PUSH1 0x0 DUP6 ADD DUP3 PUSH2 0xFA9 JUMP JUMPDEST POP PUSH1 0x20 DUP3 ADD MLOAD PUSH2 0xFF0 PUSH1 0x20 DUP6 ADD DUP3 PUSH2 0xFB8 JUMP JUMPDEST POP POP POP POP JUMP JUMPDEST PUSH1 0x0 PUSH1 0x40 DUP3 ADD SWAP1 POP PUSH2 0x100B PUSH1 0x0 DUP4 ADD DUP5 PUSH2 0xFC7 JUMP JUMPDEST SWAP3 SWAP2 POP POP JUMP JUMPDEST PUSH32 0x446F6E6174696F6E20616D6F756E74206D757374206265206772656174657220 PUSH1 0x0 DUP3 ADD MSTORE PUSH32 0x7468616E20300000000000000000000000000000000000000000000000000000 PUSH1 0x20 DUP3 ADD MSTORE POP JUMP JUMPDEST PUSH1 0x0 PUSH2 0x106D PUSH1 0x26 DUP4 PUSH2 0xAE2 JUMP JUMPDEST SWAP2 POP PUSH2 0x1078 DUP3 PUSH2 0x1011 JUMP JUMPDEST PUSH1 0x40 DUP3 ADD SWAP1 POP SWAP2 SWAP1 POP JUMP JUMPDEST PUSH1 0x0 PUSH1 0x20 DUP3 ADD SWAP1 POP DUP2 DUP2 SUB PUSH1 0x0 DUP4 ADD MSTORE PUSH2 0x109C DUP2 PUSH2 0x1060 JUMP JUMPDEST SWAP1 POP SWAP2 SWAP1 POP JUMP JUMPDEST PUSH32 0x4E487B7100000000000000000000000000000000000000000000000000000000 PUSH1 0x0 MSTORE PUSH1 0x11 PUSH1 0x4 MSTORE PUSH1 0x24 PUSH1 0x0 REVERT JUMPDEST PUSH1 0x0 PUSH2 0x10DD DUP3 PUSH2 0x9AB JUMP JUMPDEST SWAP2 POP PUSH2 0x10E8 DUP4 PUSH2 0x9AB JUMP JUMPDEST SWAP3 POP DUP3 DUP3 MUL PUSH2 0x10F6 DUP2 PUSH2 0x9AB JUMP JUMPDEST SWAP2 POP DUP3 DUP3 DIV DUP5 EQ DUP4 ISZERO OR PUSH2 0x110D JUMPI PUSH2 0x110C PUSH2 0x10A3 JUMP JUMPDEST JUMPDEST POP SWAP3 SWAP2 POP POP JUMP JUMPDEST PUSH32 0x4E487B7100000000000000000000000000000000000000000000000000000000 PUSH1 0x0 MSTORE PUSH1 0x12 PUSH1 0x4 MSTORE PUSH1 0x24 PUSH1 0x0 REVERT JUMPDEST PUSH1 0x0 PUSH2 0x114E DUP3 PUSH2 0x9AB JUMP JUMPDEST SWAP2 POP PUSH2 0x1159 DUP4 PUSH2 0x9AB JUMP JUMPDEST SWAP3 POP DUP3 PUSH2 0x1169 JUMPI PUSH2 0x1168 PUSH2 0x1114 JUMP JUMPDEST JUMPDEST DUP3 DUP3 DIV SWAP1 POP SWAP3 SWAP2 POP POP JUMP JUMPDEST PUSH1 0x0 PUSH2 0x117F DUP3 PUSH2 0x9AB JUMP JUMPDEST SWAP2 POP PUSH2 0x118A DUP4 PUSH2 0x9AB JUMP JUMPDEST SWAP3 POP DUP3 DUP3 SUB SWAP1 POP DUP2 DUP2 GT ISZERO PUSH2 0x11A2 JUMPI PUSH2 0x11A1 PUSH2 0x10A3 JUMP JUMPDEST JUMPDEST SWAP3 SWAP2 POP POP JUMP JUMPDEST PUSH1 0x0 PUSH2 0x11B3 DUP3 PUSH2 0x9AB JUMP JUMPDEST SWAP2 POP PUSH2 0x11BE DUP4 PUSH2 0x9AB JUMP JUMPDEST SWAP3 POP DUP3 DUP3 ADD SWAP1 POP DUP1 DUP3 GT ISZERO PUSH2 0x11D6 JUMPI PUSH2 0x11D5 PUSH2 0x10A3 JUMP JUMPDEST JUMPDEST SWAP3 SWAP2 POP POP JUMP JUMPDEST PUSH1 0x0 DUP3 DUP3 MSTORE PUSH1 0x20 DUP3 ADD SWAP1 POP SWAP3 SWAP2 POP POP JUMP JUMPDEST PUSH1 0x0 PUSH2 0x11F8 DUP3 PUSH2 0xAD7 JUMP JUMPDEST PUSH2 0x1202 DUP2 DUP6 PUSH2 0x11DC JUMP JUMPDEST SWAP4 POP PUSH2 0x1212 DUP2 DUP6 PUSH1 0x20 DUP7 ADD PUSH2 0xAF3 JUMP JUMPDEST PUSH2 0x121B DUP2 PUSH2 0xB1D JUMP JUMPDEST DUP5 ADD SWAP2 POP POP SWAP3 SWAP2 POP POP JUMP JUMPDEST PUSH1 0x0 PUSH1 0x80 DUP4 ADD PUSH1 0x0 DUP4 ADD MLOAD PUSH2 0x123E PUSH1 0x0 DUP7 ADD DUP3 PUSH2 0xFA9 JUMP JUMPDEST POP PUSH1 0x20 DUP4 ADD MLOAD PUSH2 0x1251 PUSH1 0x20 DUP7 ADD DUP3 PUSH2 0xFA9 JUMP JUMPDEST POP PUSH1 0x40 DUP4 ADD MLOAD PUSH2 0x1264 PUSH1 0x40 DUP7 ADD DUP3 PUSH2 0xFB8 JUMP JUMPDEST POP PUSH1 0x60 DUP4 ADD MLOAD DUP5 DUP3 SUB PUSH1 0x60 DUP7 ADD MSTORE PUSH2 0x127C DUP3 DUP3 PUSH2 0x11ED JUMP JUMPDEST SWAP2 POP POP DUP1 SWAP2 POP POP SWAP3 SWAP2 POP POP JUMP JUMPDEST PUSH1 0x0 PUSH1 0x20 DUP3 ADD SWAP1 POP DUP2 DUP2 SUB PUSH1 0x0 DUP4 ADD MSTORE PUSH2 0x12A3 DUP2 DUP5 PUSH2 0x1226 JUMP JUMPDEST SWAP1 POP SWAP3 SWAP2 POP POP JUMP JUMPDEST PUSH32 0x5573657220616C72656164792061637469766174656400000000000000000000 PUSH1 0x0 DUP3 ADD MSTORE POP JUMP JUMPDEST PUSH1 0x0 PUSH2 0x12E1 PUSH1 0x16 DUP4 PUSH2 0xAE2 JUMP JUMPDEST SWAP2 POP PUSH2 0x12EC DUP3 PUSH2 0x12AB JUMP JUMPDEST PUSH1 0x20 DUP3 ADD SWAP1 POP SWAP2 SWAP1 POP JUMP JUMPDEST PUSH1 0x0 PUSH1 0x20 DUP3 ADD SWAP1 POP DUP2 DUP2 SUB PUSH1 0x0 DUP4 ADD MSTORE PUSH2 0x1310 DUP2 PUSH2 0x12D4 JUMP JUMPDEST SWAP1 POP SWAP2 SWAP1 POP JUMP JUMPDEST PUSH32 0x557365726E616D652063616E6E6F7420626520656D7074790000000000000000 PUSH1 0x0 DUP3 ADD MSTORE POP JUMP JUMPDEST PUSH1 0x0 PUSH2 0x134D PUSH1 0x18 DUP4 PUSH2 0xAE2 JUMP JUMPDEST SWAP2 POP PUSH2 0x1358 DUP3 PUSH2 0x1317 JUMP JUMPDEST PUSH1 0x20 DUP3 ADD SWAP1 POP SWAP2 SWAP1 POP JUMP JUMPDEST PUSH1 0x0 PUSH1 0x20 DUP3 ADD SWAP1 POP DUP2 DUP2 SUB PUSH1 0x0 DUP4 ADD MSTORE PUSH2 0x137C DUP2 PUSH2 0x1340 JUMP JUMPDEST SWAP1 POP SWAP2 SWAP1 POP JUMP JUMPDEST PUSH1 0x0 DUP2 SWAP1 POP DUP2 PUSH1 0x0 MSTORE PUSH1 0x20 PUSH1 0x0 KECCAK256 SWAP1 POP SWAP2 SWAP1 POP JUMP JUMPDEST PUSH1 0x0 PUSH1 0x20 PUSH1 0x1F DUP4 ADD DIV SWAP1 POP SWAP2 SWAP1 POP JUMP JUMPDEST PUSH1 0x0 DUP3 DUP3 SHL SWAP1 POP SWAP3 SWAP2 POP POP JUMP JUMPDEST PUSH1 0x0 PUSH1 0x8 DUP4 MUL PUSH2 0x13E5 PUSH32 0xFFFFFFFFFFFFFFFFFFFFFFFFFFFFFFFFFFFFFFFFFFFFFFFFFFFFFFFFFFFFFFFF DUP3 PUSH2 0x13A8 JUMP JUMPDEST PUSH2 0x13EF DUP7 DUP4 PUSH2 0x13A8 JUMP JUMPDEST SWAP6 POP DUP1 NOT DUP5 AND SWAP4 POP DUP1 DUP7 AND DUP5 OR SWAP3 POP POP POP SWAP4 SWAP3 POP POP POP JUMP JUMPDEST PUSH1 0x0 DUP2 SWAP1 POP SWAP2 SWAP1 POP JUMP JUMPDEST PUSH1 0x0 PUSH2 0x142C PUSH2 0x1427 PUSH2 0x1422 DUP5 PUSH2 0x9AB JUMP JUMPDEST PUSH2 0x1407 JUMP JUMPDEST PUSH2 0x9AB JUMP JUMPDEST SWAP1 POP SWAP2 SWAP1 POP JUMP JUMPDEST PUSH1 0x0 DUP2 SWAP1 POP SWAP2 SWAP1 POP JUMP JUMPDEST PUSH2 0x1446 DUP4 PUSH2 0x1411 JUMP JUMPDEST PUSH2 0x145A PUSH2 0x1452 DUP3 PUSH2 0x1433 JUMP JUMPDEST DUP5 DUP5 SLOAD PUSH2 0x13B5 JUMP JUMPDEST DUP3 SSTORE POP POP POP POP JUMP JUMPDEST PUSH1 0x0 SWAP1 JUMP JUMPDEST PUSH2 0x146F PUSH2 0x1462 JUMP JUMPDEST PUSH2 0x147A DUP2 DUP5 DUP5 PUSH2 0x143D JUMP JUMPDEST POP POP POP JUMP JUMPDEST JUMPDEST DUP2 DUP2 LT ISZERO PUSH2 0x149E JUMPI PUSH2 0x1493 PUSH1 0x0 DUP3 PUSH2 0x1467 JUMP JUMPDEST PUSH1 0x1 DUP2 ADD SWAP1 POP PUSH2 0x1480 JUMP JUMPDEST POP POP JUMP JUMPDEST PUSH1 0x1F DUP3 GT ISZERO PUSH2 0x14E3 JUMPI PUSH2 0x14B4 DUP2 PUSH2 0x1383 JUMP JUMPDEST PUSH2 0x14BD DUP5 PUSH2 0x1398 JUMP JUMPDEST DUP2 ADD PUSH1 0x20 DUP6 LT ISZERO PUSH2 0x14CC JUMPI DUP2 SWAP1 POP JUMPDEST PUSH2 0x14E0 PUSH2 0x14D8 DUP6 PUSH2 0x1398 JUMP JUMPDEST DUP4 ADD DUP3 PUSH2 0x147F JUMP JUMPDEST POP POP JUMPDEST POP POP POP JUMP JUMPDEST PUSH1 0x0 DUP3 DUP3 SHR SWAP1 POP SWAP3 SWAP2 POP POP JUMP JUMPDEST PUSH1 0x0 PUSH2 0x1506 PUSH1 0x0 NOT DUP5 PUSH1 0x8 MUL PUSH2 0x14E8 JUMP JUMPDEST NOT DUP1 DUP4 AND SWAP2 POP POP SWAP3 SWAP2 POP POP JUMP JUMPDEST PUSH1 0x0 PUSH2 0x151F DUP4 DUP4 PUSH2 0x14F5 JUMP JUMPDEST SWAP2 POP DUP3 PUSH1 0x2 MUL DUP3 OR SWAP1 POP SWAP3 SWAP2 POP POP JUMP JUMPDEST PUSH2 0x1538 DUP3 PUSH2 0xAD7 JUMP JUMPDEST PUSH8 0xFFFFFFFFFFFFFFFF DUP2 GT ISZERO PUSH2 0x1551 JUMPI PUSH2 0x1550 PUSH2 0xBCA JUMP JUMPDEST JUMPDEST PUSH2 0x155B DUP3 SLOAD PUSH2 0xF0C JUMP JUMPDEST PUSH2 0x1566 DUP3 DUP3 DUP6 PUSH2 0x14A2 JUMP JUMPDEST PUSH1 0x0 PUSH1 0x20 SWAP1 POP PUSH1 0x1F DUP4 GT PUSH1 0x1 DUP2 EQ PUSH2 0x1599 JUMPI PUSH1 0x0 DUP5 ISZERO PUSH2 0x1587 JUMPI DUP3 DUP8 ADD MLOAD SWAP1 POP JUMPDEST PUSH2 0x1591 DUP6 DUP3 PUSH2 0x1513 JUMP JUMPDEST DUP7 SSTORE POP PUSH2 0x15F9 JUMP JUMPDEST PUSH1 0x1F NOT DUP5 AND PUSH2 0x15A7 DUP7 PUSH2 0x1383 JUMP JUMPDEST PUSH1 0x0 JUMPDEST DUP3 DUP2 LT ISZERO PUSH2 0x15CF JUMPI DUP5 DUP10 ADD MLOAD DUP3 SSTORE PUSH1 0x1 DUP3 ADD SWAP2 POP PUSH1 0x20 DUP6 ADD SWAP5 POP PUSH1 0x20 DUP2 ADD SWAP1 POP PUSH2 0x15AA JUMP JUMPDEST DUP7 DUP4 LT ISZERO PUSH2 0x15EC JUMPI DUP5 DUP10 ADD MLOAD PUSH2 0x15E8 PUSH1 0x1F DUP10 AND DUP3 PUSH2 0x14F5 JUMP JUMPDEST DUP4 SSTORE POP JUMPDEST PUSH1 0x1 PUSH1 0x2 DUP9 MUL ADD DUP9 SSTORE POP POP POP JUMPDEST POP POP POP POP POP POP JUMP JUMPDEST PUSH1 0x0 PUSH1 0x40 DUP4 ADD PUSH1 0x0 DUP4 ADD MLOAD PUSH2 0x1619 PUSH1 0x0 DUP7 ADD DUP3 PUSH2 0xFA9 JUMP JUMPDEST POP PUSH1 0x20 DUP4 ADD MLOAD DUP5 DUP3 SUB PUSH1 0x20 DUP7 ADD MSTORE PUSH2 0x1631 DUP3 DUP3 PUSH2 0x11ED JUMP JUMPDEST SWAP2 POP POP DUP1 SWAP2 POP POP SWAP3 SWAP2 POP POP JUMP JUMPDEST PUSH1 0x0 PUSH1 0x20 DUP3 ADD SWAP1 POP DUP2 DUP2 SUB PUSH1 0x0 DUP4 ADD MSTORE PUSH2 0x1658 DUP2 DUP5 PUSH2 0x1601 JUMP JUMPDEST SWAP1 POP SWAP3 SWAP2 POP POP JUMP INVALID LOG2 PUSH5 0x6970667358 0x22 SLT KECCAK256 0x2C 0xE0 0xEE LT ISZERO 0x27 CODESIZE 0xD5 0xDC PUSH0 0xA6 BYTE DUP2 0xEA MSTORE 0x2B 0xD0 PUSH2 0x1225 PUSH12 0x807993A143F7D73513776C64 PUSH20 0x6F6C634300081800330000000000000000000000 "
        },
        "methodIdentifiers": {
          "donate(address,string)": "429c14d7",
          "donationFee()": "3d082266",
          "getBalance()": "12065fe0",
          "iOwner()": "77c9dd4b",
          "isSelfActivated()": "90872630",
          "selfActivate(string)": "a9514f31",
          "setDonationFee(uint256)": "1cf85b9b",
          "userBalances(address)": "26224c64",
          "withdraw()": "3ccfd60b"
        }
      }
    }
  }
}