{
  "_format": "hh-sol-artifact-1",
  "contractName": "Donut",
  "sourceName": "contracts/Donut.sol",
  "abi": [
    {
      "inputs": [],
      "stateMutability": "nonpayable",
      "type": "constructor"
    },
    {
      "anonymous": false,
      "inputs": [
        {
          "components": [
            {
              "internalType": "address",
              "name": "user",
              "type": "address"
            },
            {
              "internalType": "string",
              "name": "username",
              "type": "string"
            }
          ],
          "indexed": false,
          "internalType": "struct Donut.ActivateUserResponse",
          "name": "response",
          "type": "tuple"
        }
      ],
      "name": "ActivateUser",
      "type": "event"
    },
    {
      "anonymous": false,
      "inputs": [
        {
          "indexed": false,
          "internalType": "uint256",
          "name": "newFee",
          "type": "uint256"
        }
      ],
      "name": "ChangeDonationFee",
      "type": "event"
    },
    {
      "anonymous": false,
      "inputs": [
        {
          "components": [
            {
              "internalType": "address",
              "name": "from",
              "type": "address"
            },
            {
              "internalType": "address",
              "name": "to",
              "type": "address"
            },
            {
              "internalType": "uint256",
              "name": "amount",
              "type": "uint256"
            }
          ],
          "indexed": false,
          "internalType": "struct Donut.DonateResponse",
          "name": "response",
          "type": "tuple"
        }
      ],
      "name": "Donate",
      "type": "event"
    },
    {
      "anonymous": false,
      "inputs": [
        {
          "components": [
            {
              "internalType": "address",
              "name": "user",
              "type": "address"
            },
            {
              "internalType": "uint256",
              "name": "amount",
              "type": "uint256"
            }
          ],
          "indexed": false,
          "internalType": "struct Donut.WithdrawResponse",
          "name": "response",
          "type": "tuple"
        }
      ],
      "name": "Withdraw",
      "type": "event"
    },
    {
      "inputs": [
        {
          "internalType": "address",
          "name": "toUser",
          "type": "address"
        }
      ],
      "name": "donate",
      "outputs": [],
      "stateMutability": "payable",
      "type": "function"
    },
    {
      "inputs": [],
      "name": "donationFee",
      "outputs": [
        {
          "internalType": "uint256",
          "name": "",
          "type": "uint256"
        }
      ],
      "stateMutability": "view",
      "type": "function"
    },
    {
      "inputs": [],
      "name": "getBalance",
      "outputs": [
        {
          "internalType": "uint256",
          "name": "",
          "type": "uint256"
        }
      ],
      "stateMutability": "view",
      "type": "function"
    },
    {
      "inputs": [],
      "name": "iOwner",
      "outputs": [
        {
          "internalType": "address",
          "name": "",
          "type": "address"
        }
      ],
      "stateMutability": "view",
      "type": "function"
    },
    {
      "inputs": [],
      "name": "isSelfActivated",
      "outputs": [
        {
          "internalType": "bool",
          "name": "",
          "type": "bool"
        }
      ],
      "stateMutability": "view",
      "type": "function"
    },
    {
      "inputs": [
        {
          "internalType": "string",
          "name": "username",
          "type": "string"
        }
      ],
      "name": "selfActivate",
      "outputs": [],
      "stateMutability": "nonpayable",
      "type": "function"
    },
    {
      "inputs": [
        {
          "internalType": "uint256",
          "name": "_fee",
          "type": "uint256"
        }
      ],
      "name": "setDonationFee",
      "outputs": [],
      "stateMutability": "nonpayable",
      "type": "function"
    },
    {
      "inputs": [
        {
          "internalType": "address",
          "name": "",
          "type": "address"
        }
      ],
      "name": "userBalances",
      "outputs": [
        {
          "internalType": "uint256",
          "name": "balance",
          "type": "uint256"
        },
        {
          "internalType": "string",
          "name": "username",
          "type": "string"
        },
        {
          "internalType": "bool",
          "name": "isActivated",
          "type": "bool"
        }
      ],
      "stateMutability": "view",
      "type": "function"
    },
    {
      "inputs": [],
      "name": "withdraw",
      "outputs": [],
      "stateMutability": "nonpayable",
      "type": "function"
    }
  ],
  "bytecode": "0x60806040523480156200001157600080fd5b50336000806101000a81548173ffffffffffffffffffffffffffffffffffffffff021916908373ffffffffffffffffffffffffffffffffffffffff16021790555060056001819055506040518060400160405280600581526020017f6f776e6572000000000000000000000000000000000000000000000000000000815250600360003373ffffffffffffffffffffffffffffffffffffffff1673ffffffffffffffffffffffffffffffffffffffff1681526020019081526020016000206001019081620000e0919062000361565b5062000448565b600081519050919050565b7f4e487b7100000000000000000000000000000000000000000000000000000000600052604160045260246000fd5b7f4e487b7100000000000000000000000000000000000000000000000000000000600052602260045260246000fd5b600060028204905060018216806200016957607f821691505b6020821081036200017f576200017e62000121565b5b50919050565b60008190508160005260206000209050919050565b60006020601f8301049050919050565b600082821b905092915050565b600060088302620001e97fffffffffffffffffffffffffffffffffffffffffffffffffffffffffffffffff82620001aa565b620001f58683620001aa565b95508019841693508086168417925050509392505050565b6000819050919050565b6000819050919050565b6000620002426200023c62000236846200020d565b62000217565b6200020d565b9050919050565b6000819050919050565b6200025e8362000221565b620002766200026d8262000249565b848454620001b7565b825550505050565b600090565b6200028d6200027e565b6200029a81848462000253565b505050565b5b81811015620002c257620002b660008262000283565b600181019050620002a0565b5050565b601f8211156200031157620002db8162000185565b620002e6846200019a565b81016020851015620002f6578190505b6200030e62000305856200019a565b8301826200029f565b50505b505050565b600082821c905092915050565b6000620003366000198460080262000316565b1980831691505092915050565b600062000351838362000323565b9150826002028217905092915050565b6200036c82620000e7565b67ffffffffffffffff811115620003885762000387620000f2565b5b62000394825462000150565b620003a1828285620002c6565b600060209050601f831160018114620003d95760008415620003c4578287015190505b620003d0858262000343565b86555062000440565b601f198416620003e98662000185565b60005b828110156200041357848901518255600182019150602085019450602081019050620003ec565b868310156200043357848901516200042f601f89168262000323565b8355505b6001600288020188555050505b505050505050565b61160a80620004586000396000f3fe6080604052600436106100855760003560e01c80633ccfd60b116100595780633ccfd60b146101395780633d0822661461015057806377c9dd4b1461017b57806390872630146101a6578063a9514f31146101d157610085565b8062362a951461008a57806312065fe0146100a65780631cf85b9b146100d157806326224c64146100fa575b600080fd5b6100a4600480360381019061009f9190610a15565b6101fa565b005b3480156100b257600080fd5b506100bb61035f565b6040516100c89190610a5b565b60405180910390f35b3480156100dd57600080fd5b506100f860048036038101906100f39190610aa2565b6103a9565b005b34801561010657600080fd5b50610121600480360381019061011c9190610a15565b6104bc565b60405161013093929190610b7a565b60405180910390f35b34801561014557600080fd5b5061014e61057b565b005b34801561015c57600080fd5b5061016561073a565b6040516101729190610a5b565b60405180910390f35b34801561018757600080fd5b50610190610740565b60405161019d9190610bc7565b60405180910390f35b3480156101b257600080fd5b506101bb610764565b6040516101c89190610be2565b60405180910390f35b3480156101dd57600080fd5b506101f860048036038101906101f39190610d32565b6107c0565b005b6000341161023d576040517f08c379a000000000000000000000000000000000000000000000000000000000815260040161023490610ded565b60405180910390fd5b600060646001543461024f9190610e3c565b6102599190610ead565b9050600081346102699190610ede565b905080600360008573ffffffffffffffffffffffffffffffffffffffff1673ffffffffffffffffffffffffffffffffffffffff16815260200190815260200160002060000160008282546102bd9190610f12565b9250508190555081600260008282546102d69190610f12565b925050819055507f33094f5b1c80efa555e902244a0f2315a46ad87257930472a2630488c27a617d60405180606001604052803373ffffffffffffffffffffffffffffffffffffffff1681526020018573ffffffffffffffffffffffffffffffffffffffff168152602001838152506040516103529190610fa6565b60405180910390a1505050565b6000600360003373ffffffffffffffffffffffffffffffffffffffff1673ffffffffffffffffffffffffffffffffffffffff16815260200190815260200160002060000154905090565b60008054906101000a900473ffffffffffffffffffffffffffffffffffffffff1673ffffffffffffffffffffffffffffffffffffffff163373ffffffffffffffffffffffffffffffffffffffff1614610437576040517f08c379a000000000000000000000000000000000000000000000000000000000815260040161042e90611033565b60405180910390fd5b606481111561047b576040517f08c379a00000000000000000000000000000000000000000000000000000000081526004016104729061109f565b60405180910390fd5b806001819055507fee6d4887841e27ca9c2bca480cdf2c2f08c4c0d454228640a21db896c637f6c5816040516104b19190610a5b565b60405180910390a150565b60036020528060005260406000206000915090508060000154908060010180546104e5906110ee565b80601f0160208091040260200160405190810160405280929190818152602001828054610511906110ee565b801561055e5780601f106105335761010080835404028352916020019161055e565b820191906000526020600020905b81548152906001019060200180831161054157829003601f168201915b5050505050908060020160009054906101000a900460ff16905083565b6000600360003373ffffffffffffffffffffffffffffffffffffffff1673ffffffffffffffffffffffffffffffffffffffff1681526020019081526020016000206000015411610600576040517f08c379a00000000000000000000000000000000000000000000000000000000081526004016105f79061116b565b60405180910390fd5b6000600360003373ffffffffffffffffffffffffffffffffffffffff1673ffffffffffffffffffffffffffffffffffffffff1681526020019081526020016000206000015490506000600360003373ffffffffffffffffffffffffffffffffffffffff1673ffffffffffffffffffffffffffffffffffffffff168152602001908152602001600020600001819055503373ffffffffffffffffffffffffffffffffffffffff166108fc829081150290604051600060405180830381858888f193505050501580156106d5573d6000803e3d6000fd5b507f6dc43518a6378d03782f237f8136a54531e715be249a172fd660caf3491e0a4b60405180604001604052803373ffffffffffffffffffffffffffffffffffffffff1681526020018381525060405161072f91906111ba565b60405180910390a150565b60015481565b60008054906101000a900473ffffffffffffffffffffffffffffffffffffffff1681565b600080600360003373ffffffffffffffffffffffffffffffffffffffff1673ffffffffffffffffffffffffffffffffffffffff16815260200190815260200160002060020160009054906101000a900460ff1690508091505090565b600360003373ffffffffffffffffffffffffffffffffffffffff1673ffffffffffffffffffffffffffffffffffffffff16815260200190815260200160002060020160009054906101000a900460ff1615610850576040517f08c379a000000000000000000000000000000000000000000000000000000000815260040161084790611221565b60405180910390fd5b6000815111610894576040517f08c379a000000000000000000000000000000000000000000000000000000000815260040161088b9061128d565b60405180910390fd5b80600360003373ffffffffffffffffffffffffffffffffffffffff1673ffffffffffffffffffffffffffffffffffffffff16815260200190815260200160002060010190816108e39190611459565b506001600360003373ffffffffffffffffffffffffffffffffffffffff1673ffffffffffffffffffffffffffffffffffffffff16815260200190815260200160002060020160006101000a81548160ff0219169083151502179055507f774b7775127d49ed4fa4077448f56fb6584b7ff03f6115bc9002dcf0c86973c560405180604001604052803373ffffffffffffffffffffffffffffffffffffffff1681526020018381525060405161099891906115b2565b60405180910390a150565b6000604051905090565b600080fd5b600080fd5b600073ffffffffffffffffffffffffffffffffffffffff82169050919050565b60006109e2826109b7565b9050919050565b6109f2816109d7565b81146109fd57600080fd5b50565b600081359050610a0f816109e9565b92915050565b600060208284031215610a2b57610a2a6109ad565b5b6000610a3984828501610a00565b91505092915050565b6000819050919050565b610a5581610a42565b82525050565b6000602082019050610a706000830184610a4c565b92915050565b610a7f81610a42565b8114610a8a57600080fd5b50565b600081359050610a9c81610a76565b92915050565b600060208284031215610ab857610ab76109ad565b5b6000610ac684828501610a8d565b91505092915050565b600081519050919050565b600082825260208201905092915050565b60005b83811015610b09578082015181840152602081019050610aee565b60008484015250505050565b6000601f19601f8301169050919050565b6000610b3182610acf565b610b3b8185610ada565b9350610b4b818560208601610aeb565b610b5481610b15565b840191505092915050565b60008115159050919050565b610b7481610b5f565b82525050565b6000606082019050610b8f6000830186610a4c565b8181036020830152610ba18185610b26565b9050610bb06040830184610b6b565b949350505050565b610bc1816109d7565b82525050565b6000602082019050610bdc6000830184610bb8565b92915050565b6000602082019050610bf76000830184610b6b565b92915050565b600080fd5b600080fd5b7f4e487b7100000000000000000000000000000000000000000000000000000000600052604160045260246000fd5b610c3f82610b15565b810181811067ffffffffffffffff82111715610c5e57610c5d610c07565b5b80604052505050565b6000610c716109a3565b9050610c7d8282610c36565b919050565b600067ffffffffffffffff821115610c9d57610c9c610c07565b5b610ca682610b15565b9050602081019050919050565b82818337600083830152505050565b6000610cd5610cd084610c82565b610c67565b905082815260208101848484011115610cf157610cf0610c02565b5b610cfc848285610cb3565b509392505050565b600082601f830112610d1957610d18610bfd565b5b8135610d29848260208601610cc2565b91505092915050565b600060208284031215610d4857610d476109ad565b5b600082013567ffffffffffffffff811115610d6657610d656109b2565b5b610d7284828501610d04565b91505092915050565b7f446f6e6174696f6e20616d6f756e74206d75737420626520677265617465722060008201527f7468616e20300000000000000000000000000000000000000000000000000000602082015250565b6000610dd7602683610ada565b9150610de282610d7b565b604082019050919050565b60006020820190508181036000830152610e0681610dca565b9050919050565b7f4e487b7100000000000000000000000000000000000000000000000000000000600052601160045260246000fd5b6000610e4782610a42565b9150610e5283610a42565b9250828202610e6081610a42565b91508282048414831517610e7757610e76610e0d565b5b5092915050565b7f4e487b7100000000000000000000000000000000000000000000000000000000600052601260045260246000fd5b6000610eb882610a42565b9150610ec383610a42565b925082610ed357610ed2610e7e565b5b828204905092915050565b6000610ee982610a42565b9150610ef483610a42565b9250828203905081811115610f0c57610f0b610e0d565b5b92915050565b6000610f1d82610a42565b9150610f2883610a42565b9250828201905080821115610f4057610f3f610e0d565b5b92915050565b610f4f816109d7565b82525050565b610f5e81610a42565b82525050565b606082016000820151610f7a6000850182610f46565b506020820151610f8d6020850182610f46565b506040820151610fa06040850182610f55565b50505050565b6000606082019050610fbb6000830184610f64565b92915050565b7f4f6e6c79206f776e65722063616e2063616c6c20746869732066756e6374696f60008201527f6e00000000000000000000000000000000000000000000000000000000000000602082015250565b600061101d602183610ada565b915061102882610fc1565b604082019050919050565b6000602082019050818103600083015261104c81611010565b9050919050565b7f466565206d757374206265206265747765656e203020616e6420313030000000600082015250565b6000611089601d83610ada565b915061109482611053565b602082019050919050565b600060208201905081810360008301526110b88161107c565b9050919050565b7f4e487b7100000000000000000000000000000000000000000000000000000000600052602260045260246000fd5b6000600282049050600182168061110657607f821691505b602082108103611119576111186110bf565b5b50919050565b7f496e73756666696369656e742062616c616e6365000000000000000000000000600082015250565b6000611155601483610ada565b91506111608261111f565b602082019050919050565b6000602082019050818103600083015261118481611148565b9050919050565b6040820160008201516111a16000850182610f46565b5060208201516111b46020850182610f55565b50505050565b60006040820190506111cf600083018461118b565b92915050565b7f5573657220616c72656164792061637469766174656400000000000000000000600082015250565b600061120b601683610ada565b9150611216826111d5565b602082019050919050565b6000602082019050818103600083015261123a816111fe565b9050919050565b7f557365726e616d652063616e6e6f7420626520656d7074790000000000000000600082015250565b6000611277601883610ada565b915061128282611241565b602082019050919050565b600060208201905081810360008301526112a68161126a565b9050919050565b60008190508160005260206000209050919050565b60006020601f8301049050919050565b600082821b905092915050565b60006008830261130f7fffffffffffffffffffffffffffffffffffffffffffffffffffffffffffffffff826112d2565b61131986836112d2565b95508019841693508086168417925050509392505050565b6000819050919050565b600061135661135161134c84610a42565b611331565b610a42565b9050919050565b6000819050919050565b6113708361133b565b61138461137c8261135d565b8484546112df565b825550505050565b600090565b61139961138c565b6113a4818484611367565b505050565b5b818110156113c8576113bd600082611391565b6001810190506113aa565b5050565b601f82111561140d576113de816112ad565b6113e7846112c2565b810160208510156113f6578190505b61140a611402856112c2565b8301826113a9565b50505b505050565b600082821c905092915050565b600061143060001984600802611412565b1980831691505092915050565b6000611449838361141f565b9150826002028217905092915050565b61146282610acf565b67ffffffffffffffff81111561147b5761147a610c07565b5b61148582546110ee565b6114908282856113cc565b600060209050601f8311600181146114c357600084156114b1578287015190505b6114bb858261143d565b865550611523565b601f1984166114d1866112ad565b60005b828110156114f9578489015182556001820191506020850194506020810190506114d4565b868310156115165784890151611512601f89168261141f565b8355505b6001600288020188555050505b505050505050565b600082825260208201905092915050565b600061154782610acf565b611551818561152b565b9350611561818560208601610aeb565b61156a81610b15565b840191505092915050565b600060408301600083015161158d6000860182610f46565b50602083015184820360208601526115a5828261153c565b9150508091505092915050565b600060208201905081810360008301526115cc8184611575565b90509291505056fea2646970667358221220106fee1ed281eacd906e8f449bb4f190f36cdb7a327f5e3a5b09680d9f6fe49264736f6c63430008180033",
  "linkReferences": {},
  "deployedLinkReferences": {}
}