{
  "_format": "hh-sol-artifact-1",
  "contractName": "Donut",
  "sourceName": "contracts/Donut.sol",
  "abi": [
    {
      "inputs": [],
      "stateMutability": "nonpayable",
      "type": "constructor"
    },
    {
      "anonymous": false,
      "inputs": [
        {
          "components": [
            {
              "internalType": "address",
              "name": "user",
              "type": "address"
            },
            {
              "internalType": "string",
              "name": "username",
              "type": "string"
            }
          ],
          "indexed": false,
          "internalType": "struct Donut.ActivateUserResponse",
          "name": "response",
          "type": "tuple"
        }
      ],
      "name": "ActivateUser",
      "type": "event"
    },
    {
      "anonymous": false,
      "inputs": [
        {
          "indexed": false,
          "internalType": "uint256",
          "name": "newFee",
          "type": "uint256"
        }
      ],
      "name": "ChangeDonationFee",
      "type": "event"
    },
    {
      "anonymous": false,
      "inputs": [
        {
          "components": [
            {
              "internalType": "address",
              "name": "from",
              "type": "address"
            },
            {
              "internalType": "address",
              "name": "to",
              "type": "address"
            },
            {
              "internalType": "uint256",
              "name": "amount",
              "type": "uint256"
            },
            {
              "internalType": "string",
              "name": "message",
              "type": "string"
            }
          ],
          "indexed": false,
          "internalType": "struct Donut.DonateResponse",
          "name": "response",
          "type": "tuple"
        }
      ],
      "name": "Donate",
      "type": "event"
    },
    {
      "anonymous": false,
      "inputs": [
        {
          "components": [
            {
              "internalType": "address",
              "name": "user",
              "type": "address"
            },
            {
              "internalType": "uint256",
              "name": "amount",
              "type": "uint256"
            }
          ],
          "indexed": false,
          "internalType": "struct Donut.WithdrawResponse",
          "name": "response",
          "type": "tuple"
        }
      ],
      "name": "Withdraw",
      "type": "event"
    },
    {
      "inputs": [
        {
          "internalType": "address",
          "name": "toUser",
          "type": "address"
        },
        {
          "internalType": "string",
          "name": "message",
          "type": "string"
        }
      ],
      "name": "donate",
      "outputs": [],
      "stateMutability": "payable",
      "type": "function"
    },
    {
      "inputs": [],
      "name": "donationFee",
      "outputs": [
        {
          "internalType": "uint256",
          "name": "",
          "type": "uint256"
        }
      ],
      "stateMutability": "view",
      "type": "function"
    },
    {
      "inputs": [],
      "name": "getBalance",
      "outputs": [
        {
          "internalType": "uint256",
          "name": "",
          "type": "uint256"
        }
      ],
      "stateMutability": "view",
      "type": "function"
    },
    {
      "inputs": [],
      "name": "iOwner",
      "outputs": [
        {
          "internalType": "address",
          "name": "",
          "type": "address"
        }
      ],
      "stateMutability": "view",
      "type": "function"
    },
    {
      "inputs": [],
      "name": "isSelfActivated",
      "outputs": [
        {
          "internalType": "bool",
          "name": "",
          "type": "bool"
        }
      ],
      "stateMutability": "view",
      "type": "function"
    },
    {
      "inputs": [
        {
          "internalType": "string",
          "name": "username",
          "type": "string"
        }
      ],
      "name": "selfActivate",
      "outputs": [],
      "stateMutability": "nonpayable",
      "type": "function"
    },
    {
      "inputs": [
        {
          "internalType": "uint256",
          "name": "_fee",
          "type": "uint256"
        }
      ],
      "name": "setDonationFee",
      "outputs": [],
      "stateMutability": "nonpayable",
      "type": "function"
    },
    {
      "inputs": [
        {
          "internalType": "address",
          "name": "",
          "type": "address"
        }
      ],
      "name": "userBalances",
      "outputs": [
        {
          "internalType": "uint256",
          "name": "balance",
          "type": "uint256"
        },
        {
          "internalType": "string",
          "name": "username",
          "type": "string"
        },
        {
          "internalType": "bool",
          "name": "isActivated",
          "type": "bool"
        }
      ],
      "stateMutability": "view",
      "type": "function"
    },
    {
      "inputs": [],
      "name": "withdraw",
      "outputs": [],
      "stateMutability": "nonpayable",
      "type": "function"
    }
  ],
  "bytecode": "0x60806040523480156200001157600080fd5b50336000806101000a81548173ffffffffffffffffffffffffffffffffffffffff021916908373ffffffffffffffffffffffffffffffffffffffff16021790555060056001819055506040518060400160405280600581526020017f6f776e6572000000000000000000000000000000000000000000000000000000815250600360003373ffffffffffffffffffffffffffffffffffffffff1673ffffffffffffffffffffffffffffffffffffffff1681526020019081526020016000206001019081620000e0919062000361565b5062000448565b600081519050919050565b7f4e487b7100000000000000000000000000000000000000000000000000000000600052604160045260246000fd5b7f4e487b7100000000000000000000000000000000000000000000000000000000600052602260045260246000fd5b600060028204905060018216806200016957607f821691505b6020821081036200017f576200017e62000121565b5b50919050565b60008190508160005260206000209050919050565b60006020601f8301049050919050565b600082821b905092915050565b600060088302620001e97fffffffffffffffffffffffffffffffffffffffffffffffffffffffffffffffff82620001aa565b620001f58683620001aa565b95508019841693508086168417925050509392505050565b6000819050919050565b6000819050919050565b6000620002426200023c62000236846200020d565b62000217565b6200020d565b9050919050565b6000819050919050565b6200025e8362000221565b620002766200026d8262000249565b848454620001b7565b825550505050565b600090565b6200028d6200027e565b6200029a81848462000253565b505050565b5b81811015620002c257620002b660008262000283565b600181019050620002a0565b5050565b601f8211156200031157620002db8162000185565b620002e6846200019a565b81016020851015620002f6578190505b6200030e62000305856200019a565b8301826200029f565b50505b505050565b600082821c905092915050565b6000620003366000198460080262000316565b1980831691505092915050565b600062000351838362000323565b9150826002028217905092915050565b6200036c82620000e7565b67ffffffffffffffff811115620003885762000387620000f2565b5b62000394825462000150565b620003a1828285620002c6565b600060209050601f831160018114620003d95760008415620003c4578287015190505b620003d0858262000343565b86555062000440565b601f198416620003e98662000185565b60005b828110156200041357848901518255600182019150602085019450602081019050620003ec565b868310156200043357848901516200042f601f89168262000323565b8355505b6001600288020188555050505b505050505050565b61169680620004586000396000f3fe6080604052600436106100865760003560e01c80633d082266116100595780633d08226614610135578063429c14d71461016057806377c9dd4b1461017c57806390872630146101a7578063a9514f31146101d257610086565b806312065fe01461008b5780631cf85b9b146100b657806326224c64146100df5780633ccfd60b1461011e575b600080fd5b34801561009757600080fd5b506100a06101fb565b6040516100ad91906109c4565b60405180910390f35b3480156100c257600080fd5b506100dd60048036038101906100d89190610a1f565b610245565b005b3480156100eb57600080fd5b5061010660048036038101906101019190610aaa565b610358565b60405161011593929190610b82565b60405180910390f35b34801561012a57600080fd5b50610133610417565b005b34801561014157600080fd5b5061014a6105d6565b60405161015791906109c4565b60405180910390f35b61017a60048036038101906101759190610cf5565b6105dc565b005b34801561018857600080fd5b50610191610748565b60405161019e9190610d60565b60405180910390f35b3480156101b357600080fd5b506101bc61076c565b6040516101c99190610d7b565b60405180910390f35b3480156101de57600080fd5b506101f960048036038101906101f49190610d96565b6107c8565b005b6000600360003373ffffffffffffffffffffffffffffffffffffffff1673ffffffffffffffffffffffffffffffffffffffff16815260200190815260200160002060000154905090565b60008054906101000a900473ffffffffffffffffffffffffffffffffffffffff1673ffffffffffffffffffffffffffffffffffffffff163373ffffffffffffffffffffffffffffffffffffffff16146102d3576040517f08c379a00000000000000000000000000000000000000000000000000000000081526004016102ca90610e51565b60405180910390fd5b6064811115610317576040517f08c379a000000000000000000000000000000000000000000000000000000000815260040161030e90610ebd565b60405180910390fd5b806001819055507fee6d4887841e27ca9c2bca480cdf2c2f08c4c0d454228640a21db896c637f6c58160405161034d91906109c4565b60405180910390a150565b600360205280600052604060002060009150905080600001549080600101805461038190610f0c565b80601f01602080910402602001604051908101604052809291908181526020018280546103ad90610f0c565b80156103fa5780601f106103cf576101008083540402835291602001916103fa565b820191906000526020600020905b8154815290600101906020018083116103dd57829003601f168201915b5050505050908060020160009054906101000a900460ff16905083565b6000600360003373ffffffffffffffffffffffffffffffffffffffff1673ffffffffffffffffffffffffffffffffffffffff168152602001908152602001600020600001541161049c576040517f08c379a000000000000000000000000000000000000000000000000000000000815260040161049390610f89565b60405180910390fd5b6000600360003373ffffffffffffffffffffffffffffffffffffffff1673ffffffffffffffffffffffffffffffffffffffff1681526020019081526020016000206000015490506000600360003373ffffffffffffffffffffffffffffffffffffffff1673ffffffffffffffffffffffffffffffffffffffff168152602001908152602001600020600001819055503373ffffffffffffffffffffffffffffffffffffffff166108fc829081150290604051600060405180830381858888f19350505050158015610571573d6000803e3d6000fd5b507f6dc43518a6378d03782f237f8136a54531e715be249a172fd660caf3491e0a4b60405180604001604052803373ffffffffffffffffffffffffffffffffffffffff168152602001838152506040516105cb9190610ff6565b60405180910390a150565b60015481565b6000341161061f576040517f08c379a000000000000000000000000000000000000000000000000000000000815260040161061690611083565b60405180910390fd5b600060646001543461063191906110d2565b61063b9190611143565b90506000813461064b9190611174565b905080600360008673ffffffffffffffffffffffffffffffffffffffff1673ffffffffffffffffffffffffffffffffffffffff168152602001908152602001600020600001600082825461069f91906111a8565b9250508190555081600260008282546106b891906111a8565b925050819055507fe8c9ef71233a2f4eeacd377e083adb8dda50eceba95f4f15b9afac4fa99d67cf60405180608001604052803373ffffffffffffffffffffffffffffffffffffffff1681526020018673ffffffffffffffffffffffffffffffffffffffff1681526020018381526020018581525060405161073a9190611289565b60405180910390a150505050565b60008054906101000a900473ffffffffffffffffffffffffffffffffffffffff1681565b600080600360003373ffffffffffffffffffffffffffffffffffffffff1673ffffffffffffffffffffffffffffffffffffffff16815260200190815260200160002060020160009054906101000a900460ff1690508091505090565b600360003373ffffffffffffffffffffffffffffffffffffffff1673ffffffffffffffffffffffffffffffffffffffff16815260200190815260200160002060020160009054906101000a900460ff1615610858576040517f08c379a000000000000000000000000000000000000000000000000000000000815260040161084f906112f7565b60405180910390fd5b600081511161089c576040517f08c379a000000000000000000000000000000000000000000000000000000000815260040161089390611363565b60405180910390fd5b80600360003373ffffffffffffffffffffffffffffffffffffffff1673ffffffffffffffffffffffffffffffffffffffff16815260200190815260200160002060010190816108eb919061152f565b506001600360003373ffffffffffffffffffffffffffffffffffffffff1673ffffffffffffffffffffffffffffffffffffffff16815260200190815260200160002060020160006101000a81548160ff0219169083151502179055507f774b7775127d49ed4fa4077448f56fb6584b7ff03f6115bc9002dcf0c86973c560405180604001604052803373ffffffffffffffffffffffffffffffffffffffff168152602001838152506040516109a0919061163e565b60405180910390a150565b6000819050919050565b6109be816109ab565b82525050565b60006020820190506109d960008301846109b5565b92915050565b6000604051905090565b600080fd5b600080fd5b6109fc816109ab565b8114610a0757600080fd5b50565b600081359050610a19816109f3565b92915050565b600060208284031215610a3557610a346109e9565b5b6000610a4384828501610a0a565b91505092915050565b600073ffffffffffffffffffffffffffffffffffffffff82169050919050565b6000610a7782610a4c565b9050919050565b610a8781610a6c565b8114610a9257600080fd5b50565b600081359050610aa481610a7e565b92915050565b600060208284031215610ac057610abf6109e9565b5b6000610ace84828501610a95565b91505092915050565b600081519050919050565b600082825260208201905092915050565b60005b83811015610b11578082015181840152602081019050610af6565b60008484015250505050565b6000601f19601f8301169050919050565b6000610b3982610ad7565b610b438185610ae2565b9350610b53818560208601610af3565b610b5c81610b1d565b840191505092915050565b60008115159050919050565b610b7c81610b67565b82525050565b6000606082019050610b9760008301866109b5565b8181036020830152610ba98185610b2e565b9050610bb86040830184610b73565b949350505050565b600080fd5b600080fd5b7f4e487b7100000000000000000000000000000000000000000000000000000000600052604160045260246000fd5b610c0282610b1d565b810181811067ffffffffffffffff82111715610c2157610c20610bca565b5b80604052505050565b6000610c346109df565b9050610c408282610bf9565b919050565b600067ffffffffffffffff821115610c6057610c5f610bca565b5b610c6982610b1d565b9050602081019050919050565b82818337600083830152505050565b6000610c98610c9384610c45565b610c2a565b905082815260208101848484011115610cb457610cb3610bc5565b5b610cbf848285610c76565b509392505050565b600082601f830112610cdc57610cdb610bc0565b5b8135610cec848260208601610c85565b91505092915050565b60008060408385031215610d0c57610d0b6109e9565b5b6000610d1a85828601610a95565b925050602083013567ffffffffffffffff811115610d3b57610d3a6109ee565b5b610d4785828601610cc7565b9150509250929050565b610d5a81610a6c565b82525050565b6000602082019050610d756000830184610d51565b92915050565b6000602082019050610d906000830184610b73565b92915050565b600060208284031215610dac57610dab6109e9565b5b600082013567ffffffffffffffff811115610dca57610dc96109ee565b5b610dd684828501610cc7565b91505092915050565b7f4f6e6c79206f776e65722063616e2063616c6c20746869732066756e6374696f60008201527f6e00000000000000000000000000000000000000000000000000000000000000602082015250565b6000610e3b602183610ae2565b9150610e4682610ddf565b604082019050919050565b60006020820190508181036000830152610e6a81610e2e565b9050919050565b7f466565206d757374206265206265747765656e203020616e6420313030000000600082015250565b6000610ea7601d83610ae2565b9150610eb282610e71565b602082019050919050565b60006020820190508181036000830152610ed681610e9a565b9050919050565b7f4e487b7100000000000000000000000000000000000000000000000000000000600052602260045260246000fd5b60006002820490506001821680610f2457607f821691505b602082108103610f3757610f36610edd565b5b50919050565b7f496e73756666696369656e742062616c616e6365000000000000000000000000600082015250565b6000610f73601483610ae2565b9150610f7e82610f3d565b602082019050919050565b60006020820190508181036000830152610fa281610f66565b9050919050565b610fb281610a6c565b82525050565b610fc1816109ab565b82525050565b604082016000820151610fdd6000850182610fa9565b506020820151610ff06020850182610fb8565b50505050565b600060408201905061100b6000830184610fc7565b92915050565b7f446f6e6174696f6e20616d6f756e74206d75737420626520677265617465722060008201527f7468616e20300000000000000000000000000000000000000000000000000000602082015250565b600061106d602683610ae2565b915061107882611011565b604082019050919050565b6000602082019050818103600083015261109c81611060565b9050919050565b7f4e487b7100000000000000000000000000000000000000000000000000000000600052601160045260246000fd5b60006110dd826109ab565b91506110e8836109ab565b92508282026110f6816109ab565b9150828204841483151761110d5761110c6110a3565b5b5092915050565b7f4e487b7100000000000000000000000000000000000000000000000000000000600052601260045260246000fd5b600061114e826109ab565b9150611159836109ab565b92508261116957611168611114565b5b828204905092915050565b600061117f826109ab565b915061118a836109ab565b92508282039050818111156111a2576111a16110a3565b5b92915050565b60006111b3826109ab565b91506111be836109ab565b92508282019050808211156111d6576111d56110a3565b5b92915050565b600082825260208201905092915050565b60006111f882610ad7565b61120281856111dc565b9350611212818560208601610af3565b61121b81610b1d565b840191505092915050565b600060808301600083015161123e6000860182610fa9565b5060208301516112516020860182610fa9565b5060408301516112646040860182610fb8565b506060830151848203606086015261127c82826111ed565b9150508091505092915050565b600060208201905081810360008301526112a38184611226565b905092915050565b7f5573657220616c72656164792061637469766174656400000000000000000000600082015250565b60006112e1601683610ae2565b91506112ec826112ab565b602082019050919050565b60006020820190508181036000830152611310816112d4565b9050919050565b7f557365726e616d652063616e6e6f7420626520656d7074790000000000000000600082015250565b600061134d601883610ae2565b915061135882611317565b602082019050919050565b6000602082019050818103600083015261137c81611340565b9050919050565b60008190508160005260206000209050919050565b60006020601f8301049050919050565b600082821b905092915050565b6000600883026113e57fffffffffffffffffffffffffffffffffffffffffffffffffffffffffffffffff826113a8565b6113ef86836113a8565b95508019841693508086168417925050509392505050565b6000819050919050565b600061142c611427611422846109ab565b611407565b6109ab565b9050919050565b6000819050919050565b61144683611411565b61145a61145282611433565b8484546113b5565b825550505050565b600090565b61146f611462565b61147a81848461143d565b505050565b5b8181101561149e57611493600082611467565b600181019050611480565b5050565b601f8211156114e3576114b481611383565b6114bd84611398565b810160208510156114cc578190505b6114e06114d885611398565b83018261147f565b50505b505050565b600082821c905092915050565b6000611506600019846008026114e8565b1980831691505092915050565b600061151f83836114f5565b9150826002028217905092915050565b61153882610ad7565b67ffffffffffffffff81111561155157611550610bca565b5b61155b8254610f0c565b6115668282856114a2565b600060209050601f8311600181146115995760008415611587578287015190505b6115918582611513565b8655506115f9565b601f1984166115a786611383565b60005b828110156115cf578489015182556001820191506020850194506020810190506115aa565b868310156115ec57848901516115e8601f8916826114f5565b8355505b6001600288020188555050505b505050505050565b60006040830160008301516116196000860182610fa9565b506020830151848203602086015261163182826111ed565b9150508091505092915050565b600060208201905081810360008301526116588184611601565b90509291505056fea26469706673582212202ce0ee10152738d5dc5fa61a81ea522bd06112256b807993a143f7d73513776c64736f6c63430008180033",
  "linkReferences": {},
  "deployedLinkReferences": {}
}